{
  "_format": "hh-sol-artifact-1",
  "contractName": "RequestManager",
  "sourceName": "contracts/RequestManager.sol",
  "abi": [
    {
      "inputs": [
        {
          "internalType": "address[3]",
          "name": "_peers",
          "type": "address[3]"
        }
      ],
      "stateMutability": "nonpayable",
      "type": "constructor"
    },
    {
      "anonymous": false,
      "inputs": [
        {
          "indexed": false,
          "internalType": "uint256",
          "name": "id",
          "type": "uint256"
        },
        {
          "indexed": false,
          "internalType": "address",
          "name": "requester",
          "type": "address"
        },
        {
          "indexed": false,
          "internalType": "string",
          "name": "item",
          "type": "string"
        },
        {
          "indexed": false,
          "internalType": "uint256",
          "name": "quantity",
          "type": "uint256"
        }
      ],
      "name": "RequestCreated",
      "type": "event"
    },
    {
      "anonymous": false,
      "inputs": [
        {
          "indexed": false,
          "internalType": "uint256",
          "name": "id",
          "type": "uint256"
        },
        {
          "indexed": false,
          "internalType": "enum RequestManager.Status",
          "name": "status",
          "type": "uint8"
        }
      ],
      "name": "RequestStatusUpdated",
      "type": "event"
    },
    {
      "inputs": [
        {
          "internalType": "uint256",
          "name": "_id",
          "type": "uint256"
        },
        {
          "internalType": "enum RequestManager.Status",
          "name": "_newStatus",
          "type": "uint8"
        }
      ],
      "name": "approveRequest",
      "outputs": [],
      "stateMutability": "nonpayable",
      "type": "function"
    },
    {
      "inputs": [
        {
          "internalType": "string",
          "name": "_item",
          "type": "string"
        },
        {
          "internalType": "uint256",
          "name": "_quantity",
          "type": "uint256"
        }
      ],
      "name": "createRequest",
      "outputs": [
        {
          "internalType": "uint256",
          "name": "",
          "type": "uint256"
        }
      ],
      "stateMutability": "nonpayable",
      "type": "function"
    },
    {
      "inputs": [],
      "name": "nextRequestId",
      "outputs": [
        {
          "internalType": "uint256",
          "name": "",
          "type": "uint256"
        }
      ],
      "stateMutability": "view",
      "type": "function"
    },
    {
      "inputs": [
        {
          "internalType": "uint256",
          "name": "",
          "type": "uint256"
        }
      ],
      "name": "peers",
      "outputs": [
        {
          "internalType": "address",
          "name": "",
          "type": "address"
        }
      ],
      "stateMutability": "view",
      "type": "function"
    },
    {
      "inputs": [
        {
          "internalType": "uint256",
          "name": "",
          "type": "uint256"
        }
      ],
      "name": "requests",
      "outputs": [
        {
          "internalType": "uint256",
          "name": "id",
          "type": "uint256"
        },
        {
          "internalType": "address",
          "name": "requester",
          "type": "address"
        },
        {
          "internalType": "string",
          "name": "item",
          "type": "string"
        },
        {
          "internalType": "uint256",
          "name": "quantity",
          "type": "uint256"
        },
        {
          "internalType": "enum RequestManager.Status",
          "name": "status",
          "type": "uint8"
        },
        {
          "internalType": "bool",
          "name": "exists",
          "type": "bool"
        }
      ],
      "stateMutability": "view",
      "type": "function"
    }
  ],
  "bytecode": "0x60806040523480156200001157600080fd5b5060405162001676380380620016768339818101604052810190620000379190620002ca565b8060029060036200004a92919062000052565b5050620002fc565b8260038101928215620000c1579160200282015b82811115620000c05782518260006101000a81548173ffffffffffffffffffffffffffffffffffffffff021916908373ffffffffffffffffffffffffffffffffffffffff1602179055509160200191906001019062000066565b5b509050620000d09190620000d4565b5090565b5b80821115620000ef576000816000905550600101620000d5565b5090565b6000604051905090565b600080fd5b600080fd5b6000601f19601f8301169050919050565b7f4e487b7100000000000000000000000000000000000000000000000000000000600052604160045260246000fd5b620001528262000107565b810181811067ffffffffffffffff8211171562000174576200017362000118565b5b80604052505050565b600062000189620000f3565b905062000197828262000147565b919050565b600067ffffffffffffffff821115620001ba57620001b962000118565b5b602082029050919050565b600080fd5b600073ffffffffffffffffffffffffffffffffffffffff82169050919050565b6000620001f782620001ca565b9050919050565b6200020981620001ea565b81146200021557600080fd5b50565b6000815190506200022981620001fe565b92915050565b60006200024662000240846200019c565b6200017d565b90508060208402830185811115620002635762000262620001c5565b5b835b818110156200029057806200027b888262000218565b84526020840193505060208101905062000265565b5050509392505050565b600082601f830112620002b257620002b162000102565b5b6003620002c18482856200022f565b91505092915050565b600060608284031215620002e357620002e2620000fd565b5b6000620002f3848285016200029a565b91505092915050565b61136a806200030c6000396000f3fe608060405234801561001057600080fd5b50600436106100575760003560e01c806359b72ff81461005c5780636a84a9851461007857806381d12c5814610096578063aa6e90c0146100cb578063be4f3e8f146100fb575b600080fd5b6100766004803603810190610071919061093b565b61012b565b005b610080610600565b60405161008d919061098a565b60405180910390f35b6100b060048036038101906100ab91906109a5565b610606565b6040516100c296959493929190610b35565b60405180910390f35b6100e560048036038101906100e09190610cd2565b610704565b6040516100f2919061098a565b60405180910390f35b610115600480360381019061011091906109a5565b610896565b6040516101229190610d2e565b60405180910390f35b6000805b60038110156101bc576002816003811061014c5761014b610d49565b5b0160009054906101000a900473ffffffffffffffffffffffffffffffffffffffff1673ffffffffffffffffffffffffffffffffffffffff163373ffffffffffffffffffffffffffffffffffffffff16036101a957600191506101bc565b80806101b490610da7565b91505061012f565b50806101fd576040517f08c379a00000000000000000000000000000000000000000000000000000000081526004016101f490610e3b565b60405180910390fd5b60008084815260200190815260200160002060040160019054906101000a900460ff1661025f576040517f08c379a000000000000000000000000000000000000000000000000000000000815260040161025690610ea7565b60405180910390fd5b600080600085815260200190815260200160002060040160009054906101000a900460ff1690506000600481111561029a57610299610aa3565b5b8160048111156102ad576102ac610aa3565b5b14801561030d5750600160048111156102c9576102c8610aa3565b5b8360048111156102dc576102db610aa3565b5b148061030c5750600260048111156102f7576102f6610aa3565b5b83600481111561030a57610309610aa3565b5b145b5b8061036c57506001600481111561032757610326610aa3565b5b81600481111561033a57610339610aa3565b5b14801561036b57506003600481111561035657610355610aa3565b5b83600481111561036957610368610aa3565b5b145b5b806103ca57506003600481111561038657610385610aa3565b5b81600481111561039957610398610aa3565b5b1480156103c957506004808111156103b4576103b3610aa3565b5b8360048111156103c7576103c6610aa3565b5b145b5b610409576040517f08c379a000000000000000000000000000000000000000000000000000000000815260040161040090610f13565b60405180910390fd5b6005600085815260200190815260200160002060003373ffffffffffffffffffffffffffffffffffffffff1673ffffffffffffffffffffffffffffffffffffffff16815260200190815260200160002060009054906101000a900460ff16156104a7576040517f08c379a000000000000000000000000000000000000000000000000000000000815260040161049e90610f7f565b60405180910390fd5b60016005600086815260200190815260200160002060003373ffffffffffffffffffffffffffffffffffffffff1673ffffffffffffffffffffffffffffffffffffffff16815260200190815260200160002060006101000a81548160ff02191690831515021790555060016006600086815260200190815260200160002060008282829054906101000a900460ff166105409190610fac565b92506101000a81548160ff021916908360ff16021790555060026006600086815260200190815260200160002060009054906101000a900460ff1660ff16106105fa578260008086815260200190815260200160002060040160006101000a81548160ff021916908360048111156105bb576105ba610aa3565b5b02179055507fb89994b054959719767a2fb672051485fe2b7fa8d48099f01d2be7086ba9828284846040516105f1929190610fe1565b60405180910390a15b50505050565b60015481565b60006020528060005260406000206000915090508060000154908060010160009054906101000a900473ffffffffffffffffffffffffffffffffffffffff169080600201805461065590611039565b80601f016020809104026020016040519081016040528092919081815260200182805461068190611039565b80156106ce5780601f106106a3576101008083540402835291602001916106ce565b820191906000526020600020905b8154815290600101906020018083116106b157829003601f168201915b5050505050908060030154908060040160009054906101000a900460ff16908060040160019054906101000a900460ff16905086565b6000806001600081548092919061071a90610da7565b9190505590506040518060c001604052808281526020013373ffffffffffffffffffffffffffffffffffffffff1681526020018581526020018481526020016000600481111561076d5761076c610aa3565b5b8152602001600115158152506000808381526020019081526020016000206000820151816000015560208201518160010160006101000a81548173ffffffffffffffffffffffffffffffffffffffff021916908373ffffffffffffffffffffffffffffffffffffffff16021790555060408201518160020190816107f19190611216565b506060820151816003015560808201518160040160006101000a81548160ff0219169083600481111561082757610826610aa3565b5b021790555060a08201518160040160016101000a81548160ff0219169083151502179055509050507f5a0fbb51489332ea302756bf6f2f7aeb1907708caf26da6086fd68a676757c238133868660405161088494939291906112e8565b60405180910390a18091505092915050565b600281600381106108a657600080fd5b016000915054906101000a900473ffffffffffffffffffffffffffffffffffffffff1681565b6000604051905090565b600080fd5b600080fd5b6000819050919050565b6108f3816108e0565b81146108fe57600080fd5b50565b600081359050610910816108ea565b92915050565b6005811061092357600080fd5b50565b60008135905061093581610916565b92915050565b60008060408385031215610952576109516108d6565b5b600061096085828601610901565b925050602061097185828601610926565b9150509250929050565b610984816108e0565b82525050565b600060208201905061099f600083018461097b565b92915050565b6000602082840312156109bb576109ba6108d6565b5b60006109c984828501610901565b91505092915050565b600073ffffffffffffffffffffffffffffffffffffffff82169050919050565b60006109fd826109d2565b9050919050565b610a0d816109f2565b82525050565b600081519050919050565b600082825260208201905092915050565b60005b83811015610a4d578082015181840152602081019050610a32565b60008484015250505050565b6000601f19601f8301169050919050565b6000610a7582610a13565b610a7f8185610a1e565b9350610a8f818560208601610a2f565b610a9881610a59565b840191505092915050565b7f4e487b7100000000000000000000000000000000000000000000000000000000600052602160045260246000fd5b60058110610ae357610ae2610aa3565b5b50565b6000819050610af482610ad2565b919050565b6000610b0482610ae6565b9050919050565b610b1481610af9565b82525050565b60008115159050919050565b610b2f81610b1a565b82525050565b600060c082019050610b4a600083018961097b565b610b576020830188610a04565b8181036040830152610b698187610a6a565b9050610b78606083018661097b565b610b856080830185610b0b565b610b9260a0830184610b26565b979650505050505050565b600080fd5b600080fd5b7f4e487b7100000000000000000000000000000000000000000000000000000000600052604160045260246000fd5b610bdf82610a59565b810181811067ffffffffffffffff82111715610bfe57610bfd610ba7565b5b80604052505050565b6000610c116108cc565b9050610c1d8282610bd6565b919050565b600067ffffffffffffffff821115610c3d57610c3c610ba7565b5b610c4682610a59565b9050602081019050919050565b82818337600083830152505050565b6000610c75610c7084610c22565b610c07565b905082815260208101848484011115610c9157610c90610ba2565b5b610c9c848285610c53565b509392505050565b600082601f830112610cb957610cb8610b9d565b5b8135610cc9848260208601610c62565b91505092915050565b60008060408385031215610ce957610ce86108d6565b5b600083013567ffffffffffffffff811115610d0757610d066108db565b5b610d1385828601610ca4565b9250506020610d2485828601610901565b9150509250929050565b6000602082019050610d436000830184610a04565b92915050565b7f4e487b7100000000000000000000000000000000000000000000000000000000600052603260045260246000fd5b7f4e487b7100000000000000000000000000000000000000000000000000000000600052601160045260246000fd5b6000610db2826108e0565b91507fffffffffffffffffffffffffffffffffffffffffffffffffffffffffffffffff8203610de457610de3610d78565b5b600182019050919050565b7f4e6f7420617574686f72697a6564207065657200000000000000000000000000600082015250565b6000610e25601383610a1e565b9150610e3082610def565b602082019050919050565b60006020820190508181036000830152610e5481610e18565b9050919050565b7f52657175657374206e6f7420666f756e64000000000000000000000000000000600082015250565b6000610e91601183610a1e565b9150610e9c82610e5b565b602082019050919050565b60006020820190508181036000830152610ec081610e84565b9050919050565b7f496e76616c696420737461747573207472616e736974696f6e00000000000000600082015250565b6000610efd601983610a1e565b9150610f0882610ec7565b602082019050919050565b60006020820190508181036000830152610f2c81610ef0565b9050919050565b7f416c726561647920617070726f76656400000000000000000000000000000000600082015250565b6000610f69601083610a1e565b9150610f7482610f33565b602082019050919050565b60006020820190508181036000830152610f9881610f5c565b9050919050565b600060ff82169050919050565b6000610fb782610f9f565b9150610fc283610f9f565b9250828201905060ff811115610fdb57610fda610d78565b5b92915050565b6000604082019050610ff6600083018561097b565b6110036020830184610b0b565b9392505050565b7f4e487b7100000000000000000000000000000000000000000000000000000000600052602260045260246000fd5b6000600282049050600182168061105157607f821691505b6020821081036110645761106361100a565b5b50919050565b60008190508160005260206000209050919050565b60006020601f8301049050919050565b600082821b905092915050565b6000600883026110cc7fffffffffffffffffffffffffffffffffffffffffffffffffffffffffffffffff8261108f565b6110d6868361108f565b95508019841693508086168417925050509392505050565b6000819050919050565b600061111361110e611109846108e0565b6110ee565b6108e0565b9050919050565b6000819050919050565b61112d836110f8565b6111416111398261111a565b84845461109c565b825550505050565b600090565b611156611149565b611161818484611124565b505050565b5b818110156111855761117a60008261114e565b600181019050611167565b5050565b601f8211156111ca5761119b8161106a565b6111a48461107f565b810160208510156111b3578190505b6111c76111bf8561107f565b830182611166565b50505b505050565b600082821c905092915050565b60006111ed600019846008026111cf565b1980831691505092915050565b600061120683836111dc565b9150826002028217905092915050565b61121f82610a13565b67ffffffffffffffff81111561123857611237610ba7565b5b6112428254611039565b61124d828285611189565b600060209050601f831160018114611280576000841561126e578287015190505b61127885826111fa565b8655506112e0565b601f19841661128e8661106a565b60005b828110156112b657848901518255600182019150602085019450602081019050611291565b868310156112d357848901516112cf601f8916826111dc565b8355505b6001600288020188555050505b505050505050565b60006080820190506112fd600083018761097b565b61130a6020830186610a04565b818103604083015261131c8185610a6a565b905061132b606083018461097b565b9594505050505056fea2646970667358221220927bfd85d4ca866059d22b1bf078bfe487bfde6feb218822f8b2c142c2b4ac8764736f6c63430008150033",
  "linkReferences": {},
  "deployedLinkReferences": {}
}