{
  "_format": "hh-sol-artifact-1",
  "contractName": "UserManager",
  "sourceName": "contracts/UserManager.sol",
  "abi": [
    {
      "inputs": [
        {
          "internalType": "address[3]",
          "name": "_peers",
          "type": "address[3]"
        }
      ],
      "stateMutability": "nonpayable",
      "type": "constructor"
    },
    {
      "anonymous": false,
      "inputs": [
        {
          "indexed": true,
          "internalType": "address",
          "name": "user",
          "type": "address"
        }
      ],
      "name": "UserDeleted",
      "type": "event"
    },
    {
      "anonymous": false,
      "inputs": [
        {
          "indexed": true,
          "internalType": "address",
          "name": "user",
          "type": "address"
        }
      ],
      "name": "UserSignedIn",
      "type": "event"
    },
    {
      "anonymous": false,
      "inputs": [
        {
          "indexed": true,
          "internalType": "address",
          "name": "user",
          "type": "address"
        }
      ],
      "name": "UserSignedOut",
      "type": "event"
    },
    {
      "anonymous": false,
      "inputs": [
        {
          "indexed": true,
          "internalType": "address",
          "name": "user",
          "type": "address"
        },
        {
          "indexed": false,
          "internalType": "string",
          "name": "name",
          "type": "string"
        }
      ],
      "name": "UserSignedUp",
      "type": "event"
    },
    {
      "anonymous": false,
      "inputs": [
        {
          "indexed": true,
          "internalType": "address",
          "name": "user",
          "type": "address"
        },
        {
          "indexed": false,
          "internalType": "string",
          "name": "newName",
          "type": "string"
        }
      ],
      "name": "UserUpdated",
      "type": "event"
    },
    {
      "inputs": [
        {
          "internalType": "address",
          "name": "_user",
          "type": "address"
        }
      ],
      "name": "approveDelete",
      "outputs": [],
      "stateMutability": "nonpayable",
      "type": "function"
    },
    {
      "inputs": [
        {
          "internalType": "uint256",
          "name": "",
          "type": "uint256"
        }
      ],
      "name": "peers",
      "outputs": [
        {
          "internalType": "address",
          "name": "",
          "type": "address"
        }
      ],
      "stateMutability": "view",
      "type": "function"
    },
    {
      "inputs": [],
      "name": "signin",
      "outputs": [],
      "stateMutability": "nonpayable",
      "type": "function"
    },
    {
      "inputs": [],
      "name": "signout",
      "outputs": [],
      "stateMutability": "nonpayable",
      "type": "function"
    },
    {
      "inputs": [
        {
          "internalType": "string",
          "name": "_name",
          "type": "string"
        }
      ],
      "name": "signup",
      "outputs": [],
      "stateMutability": "nonpayable",
      "type": "function"
    },
    {
      "inputs": [
        {
          "internalType": "string",
          "name": "_newName",
          "type": "string"
        }
      ],
      "name": "update",
      "outputs": [],
      "stateMutability": "nonpayable",
      "type": "function"
    },
    {
      "inputs": [
        {
          "internalType": "address",
          "name": "",
          "type": "address"
        }
      ],
      "name": "users",
      "outputs": [
        {
          "internalType": "string",
          "name": "name",
          "type": "string"
        },
        {
          "internalType": "bool",
          "name": "exists",
          "type": "bool"
        }
      ],
      "stateMutability": "view",
      "type": "function"
    }
  ],
  "bytecode": "0x60806040523480156200001157600080fd5b5060405162001827380380620018278339818101604052810190620000379190620002ca565b8060019060036200004a92919062000052565b5050620002fc565b8260038101928215620000c1579160200282015b82811115620000c05782518260006101000a81548173ffffffffffffffffffffffffffffffffffffffff021916908373ffffffffffffffffffffffffffffffffffffffff1602179055509160200191906001019062000066565b5b509050620000d09190620000d4565b5090565b5b80821115620000ef576000816000905550600101620000d5565b5090565b6000604051905090565b600080fd5b600080fd5b6000601f19601f8301169050919050565b7f4e487b7100000000000000000000000000000000000000000000000000000000600052604160045260246000fd5b620001528262000107565b810181811067ffffffffffffffff8211171562000174576200017362000118565b5b80604052505050565b600062000189620000f3565b905062000197828262000147565b919050565b600067ffffffffffffffff821115620001ba57620001b962000118565b5b602082029050919050565b600080fd5b600073ffffffffffffffffffffffffffffffffffffffff82169050919050565b6000620001f782620001ca565b9050919050565b6200020981620001ea565b81146200021557600080fd5b50565b6000815190506200022981620001fe565b92915050565b60006200024662000240846200019c565b6200017d565b90508060208402830185811115620002635762000262620001c5565b5b835b818110156200029057806200027b888262000218565b84526020840193505060208101905062000265565b5050509392505050565b600082601f830112620002b257620002b162000102565b5b6003620002c18482856200022f565b91505092915050565b600060608284031215620002e357620002e2620000fd565b5b6000620002f3848285016200029a565b91505092915050565b61151b806200030c6000396000f3fe608060405234801561001057600080fd5b506004361061007d5760003560e01c8063a87430ba1161005b578063a87430ba146100d6578063be4f3e8f14610107578063c324e16b14610137578063d4c355cd146101415761007d565b80633d7403a314610082578063519c63771461009e5780638b31b2db146100ba575b600080fd5b61009c60048036038101906100979190610cb6565b61014b565b005b6100b860048036038101906100b39190610cb6565b610279565b005b6100d460048036038101906100cf9190610d5d565b6103e8565b005b6100f060048036038101906100eb9190610d5d565b61086a565b6040516100fe929190610e24565b60405180910390f35b610121600480360381019061011c9190610e8a565b610923565b60405161012e9190610ec6565b60405180910390f35b61013f610959565b005b610149610a2c565b005b6000803373ffffffffffffffffffffffffffffffffffffffff1673ffffffffffffffffffffffffffffffffffffffff16815260200190815260200160002060010160009054906101000a900460ff166101d9576040517f08c379a00000000000000000000000000000000000000000000000000000000081526004016101d090610f2d565b60405180910390fd5b806000803373ffffffffffffffffffffffffffffffffffffffff1673ffffffffffffffffffffffffffffffffffffffff16815260200190815260200160002060000190816102279190611159565b503373ffffffffffffffffffffffffffffffffffffffff167fd6136f3cad7c60bfc24bbf1548f39f766ca8bce104bf9adde3deb6237dec51df8260405161026e919061122b565b60405180910390a250565b6000803373ffffffffffffffffffffffffffffffffffffffff1673ffffffffffffffffffffffffffffffffffffffff16815260200190815260200160002060010160009054906101000a900460ff1615610308576040517f08c379a00000000000000000000000000000000000000000000000000000000081526004016102ff90611299565b60405180910390fd5b6040518060400160405280828152602001600115158152506000803373ffffffffffffffffffffffffffffffffffffffff1673ffffffffffffffffffffffffffffffffffffffff16815260200190815260200160002060008201518160000190816103739190611159565b5060208201518160010160006101000a81548160ff0219169083151502179055509050503373ffffffffffffffffffffffffffffffffffffffff167f8071c88b5ffc3db203631c8ac7a0061d708c0cf8e731d88cdb296b2c18d382a4826040516103dd919061122b565b60405180910390a250565b6000805b60038110156104795760018160038110610409576104086112b9565b5b0160009054906101000a900473ffffffffffffffffffffffffffffffffffffffff1673ffffffffffffffffffffffffffffffffffffffff163373ffffffffffffffffffffffffffffffffffffffff16036104665760019150610479565b808061047190611317565b9150506103ec565b50806104ba576040517f08c379a00000000000000000000000000000000000000000000000000000000081526004016104b1906113ab565b60405180910390fd5b6000808373ffffffffffffffffffffffffffffffffffffffff1673ffffffffffffffffffffffffffffffffffffffff16815260200190815260200160002060010160009054906101000a900460ff16610548576040517f08c379a000000000000000000000000000000000000000000000000000000000815260040161053f90611417565b60405180910390fd5b600460008373ffffffffffffffffffffffffffffffffffffffff1673ffffffffffffffffffffffffffffffffffffffff16815260200190815260200160002060003373ffffffffffffffffffffffffffffffffffffffff1673ffffffffffffffffffffffffffffffffffffffff16815260200190815260200160002060009054906101000a900460ff1615610612576040517f08c379a000000000000000000000000000000000000000000000000000000000815260040161060990611483565b60405180910390fd5b6001600460008473ffffffffffffffffffffffffffffffffffffffff1673ffffffffffffffffffffffffffffffffffffffff16815260200190815260200160002060003373ffffffffffffffffffffffffffffffffffffffff1673ffffffffffffffffffffffffffffffffffffffff16815260200190815260200160002060006101000a81548160ff0219169083151502179055506001600560008473ffffffffffffffffffffffffffffffffffffffff1673ffffffffffffffffffffffffffffffffffffffff16815260200190815260200160002060008282829054906101000a900460ff1661070391906114b0565b92506101000a81548160ff021916908360ff1602179055506002600560008473ffffffffffffffffffffffffffffffffffffffff1673ffffffffffffffffffffffffffffffffffffffff16815260200190815260200160002060009054906101000a900460ff1660ff1610610866576000808373ffffffffffffffffffffffffffffffffffffffff1673ffffffffffffffffffffffffffffffffffffffff168152602001908152602001600020600080820160006107c19190610aff565b6001820160006101000a81549060ff02191690555050600560008373ffffffffffffffffffffffffffffffffffffffff1673ffffffffffffffffffffffffffffffffffffffff16815260200190815260200160002060009054906101000a9050508173ffffffffffffffffffffffffffffffffffffffff167f4bc56f1321288dfb5b416cb3a7fd188723979f9e866c91d88eccf7fca039d03960405160405180910390a25b5050565b600060205280600052604060002060009150905080600001805461088d90610f7c565b80601f01602080910402602001604051908101604052809291908181526020018280546108b990610f7c565b80156109065780601f106108db57610100808354040283529160200191610906565b820191906000526020600020905b8154815290600101906020018083116108e957829003601f168201915b5050505050908060010160009054906101000a900460ff16905082565b6001816003811061093357600080fd5b016000915054906101000a900473ffffffffffffffffffffffffffffffffffffffff1681565b6000803373ffffffffffffffffffffffffffffffffffffffff1673ffffffffffffffffffffffffffffffffffffffff16815260200190815260200160002060010160009054906101000a900460ff166109e7576040517f08c379a00000000000000000000000000000000000000000000000000000000081526004016109de90610f2d565b60405180910390fd5b3373ffffffffffffffffffffffffffffffffffffffff167f440de9ca62f7ad20dd82f4fb6173391f26131a81f62ad96d60ea394b08564ee260405160405180910390a2565b6000803373ffffffffffffffffffffffffffffffffffffffff1673ffffffffffffffffffffffffffffffffffffffff16815260200190815260200160002060010160009054906101000a900460ff16610aba576040517f08c379a0000000000000000000000000000000000000000000000000000000008152600401610ab190610f2d565b60405180910390fd5b3373ffffffffffffffffffffffffffffffffffffffff167f9050030defc398957e09b177b20830b566bc49e8756660297357b0ab43e7aee760405160405180910390a2565b508054610b0b90610f7c565b6000825580601f10610b1d5750610b3c565b601f016020900490600052602060002090810190610b3b9190610b3f565b5b50565b5b80821115610b58576000816000905550600101610b40565b5090565b6000604051905090565b600080fd5b600080fd5b600080fd5b600080fd5b6000601f19601f8301169050919050565b7f4e487b7100000000000000000000000000000000000000000000000000000000600052604160045260246000fd5b610bc382610b7a565b810181811067ffffffffffffffff82111715610be257610be1610b8b565b5b80604052505050565b6000610bf5610b5c565b9050610c018282610bba565b919050565b600067ffffffffffffffff821115610c2157610c20610b8b565b5b610c2a82610b7a565b9050602081019050919050565b82818337600083830152505050565b6000610c59610c5484610c06565b610beb565b905082815260208101848484011115610c7557610c74610b75565b5b610c80848285610c37565b509392505050565b600082601f830112610c9d57610c9c610b70565b5b8135610cad848260208601610c46565b91505092915050565b600060208284031215610ccc57610ccb610b66565b5b600082013567ffffffffffffffff811115610cea57610ce9610b6b565b5b610cf684828501610c88565b91505092915050565b600073ffffffffffffffffffffffffffffffffffffffff82169050919050565b6000610d2a82610cff565b9050919050565b610d3a81610d1f565b8114610d4557600080fd5b50565b600081359050610d5781610d31565b92915050565b600060208284031215610d7357610d72610b66565b5b6000610d8184828501610d48565b91505092915050565b600081519050919050565b600082825260208201905092915050565b60005b83811015610dc4578082015181840152602081019050610da9565b60008484015250505050565b6000610ddb82610d8a565b610de58185610d95565b9350610df5818560208601610da6565b610dfe81610b7a565b840191505092915050565b60008115159050919050565b610e1e81610e09565b82525050565b60006040820190508181036000830152610e3e8185610dd0565b9050610e4d6020830184610e15565b9392505050565b6000819050919050565b610e6781610e54565b8114610e7257600080fd5b50565b600081359050610e8481610e5e565b92915050565b600060208284031215610ea057610e9f610b66565b5b6000610eae84828501610e75565b91505092915050565b610ec081610d1f565b82525050565b6000602082019050610edb6000830184610eb7565b92915050565b7f55736572206e6f74207265676973746572656400000000000000000000000000600082015250565b6000610f17601383610d95565b9150610f2282610ee1565b602082019050919050565b60006020820190508181036000830152610f4681610f0a565b9050919050565b7f4e487b7100000000000000000000000000000000000000000000000000000000600052602260045260246000fd5b60006002820490506001821680610f9457607f821691505b602082108103610fa757610fa6610f4d565b5b50919050565b60008190508160005260206000209050919050565b60006020601f8301049050919050565b600082821b905092915050565b60006008830261100f7fffffffffffffffffffffffffffffffffffffffffffffffffffffffffffffffff82610fd2565b6110198683610fd2565b95508019841693508086168417925050509392505050565b6000819050919050565b600061105661105161104c84610e54565b611031565b610e54565b9050919050565b6000819050919050565b6110708361103b565b61108461107c8261105d565b848454610fdf565b825550505050565b600090565b61109961108c565b6110a4818484611067565b505050565b5b818110156110c8576110bd600082611091565b6001810190506110aa565b5050565b601f82111561110d576110de81610fad565b6110e784610fc2565b810160208510156110f6578190505b61110a61110285610fc2565b8301826110a9565b50505b505050565b600082821c905092915050565b600061113060001984600802611112565b1980831691505092915050565b6000611149838361111f565b9150826002028217905092915050565b61116282610d8a565b67ffffffffffffffff81111561117b5761117a610b8b565b5b6111858254610f7c565b6111908282856110cc565b600060209050601f8311600181146111c357600084156111b1578287015190505b6111bb858261113d565b865550611223565b601f1984166111d186610fad565b60005b828110156111f9578489015182556001820191506020850194506020810190506111d4565b868310156112165784890151611212601f89168261111f565b8355505b6001600288020188555050505b505050505050565b600060208201905081810360008301526112458184610dd0565b905092915050565b7f5573657220657869737473000000000000000000000000000000000000000000600082015250565b6000611283600b83610d95565b915061128e8261124d565b602082019050919050565b600060208201905081810360008301526112b281611276565b9050919050565b7f4e487b7100000000000000000000000000000000000000000000000000000000600052603260045260246000fd5b7f4e487b7100000000000000000000000000000000000000000000000000000000600052601160045260246000fd5b600061132282610e54565b91507fffffffffffffffffffffffffffffffffffffffffffffffffffffffffffffffff8203611354576113536112e8565b5b600182019050919050565b7f4e6f7420617574686f72697a6564207065657200000000000000000000000000600082015250565b6000611395601383610d95565b91506113a08261135f565b602082019050919050565b600060208201905081810360008301526113c481611388565b9050919050565b7f55736572206e6f7420666f756e64000000000000000000000000000000000000600082015250565b6000611401600e83610d95565b915061140c826113cb565b602082019050919050565b60006020820190508181036000830152611430816113f4565b9050919050565b7f416c726561647920617070726f76656400000000000000000000000000000000600082015250565b600061146d601083610d95565b915061147882611437565b602082019050919050565b6000602082019050818103600083015261149c81611460565b9050919050565b600060ff82169050919050565b60006114bb826114a3565b91506114c6836114a3565b9250828201905060ff8111156114df576114de6112e8565b5b9291505056fea2646970667358221220e4db339447aac65f7269236cff882d26613ebbbe96f7a969e2a6d7437d58c25e64736f6c63430008150033",
  "linkReferences": {},
  "deployedLinkReferences": {}
}