{
  "_format": "hh-sol-artifact-1",
  "contractName": "StockManager",
  "sourceName": "contracts/StockManager.sol",
  "abi": [
    {
      "inputs": [
        {
          "internalType": "address[3]",
          "name": "_peers",
          "type": "address[3]"
        }
      ],
      "stateMutability": "nonpayable",
      "type": "constructor"
    },
    {
      "anonymous": false,
      "inputs": [
        {
          "indexed": false,
          "internalType": "uint256",
          "name": "id",
          "type": "uint256"
        },
        {
          "indexed": false,
          "internalType": "string",
          "name": "name",
          "type": "string"
        },
        {
          "indexed": false,
          "internalType": "uint256",
          "name": "quantity",
          "type": "uint256"
        }
      ],
      "name": "StockCreated",
      "type": "event"
    },
    {
      "anonymous": false,
      "inputs": [
        {
          "indexed": false,
          "internalType": "uint256",
          "name": "id",
          "type": "uint256"
        }
      ],
      "name": "StockDeleted",
      "type": "event"
    },
    {
      "anonymous": false,
      "inputs": [
        {
          "indexed": false,
          "internalType": "uint256",
          "name": "id",
          "type": "uint256"
        },
        {
          "indexed": false,
          "internalType": "string",
          "name": "name",
          "type": "string"
        },
        {
          "indexed": false,
          "internalType": "uint256",
          "name": "quantity",
          "type": "uint256"
        }
      ],
      "name": "StockUpdated",
      "type": "event"
    },
    {
      "inputs": [
        {
          "internalType": "uint256",
          "name": "_id",
          "type": "uint256"
        }
      ],
      "name": "approveStock",
      "outputs": [],
      "stateMutability": "nonpayable",
      "type": "function"
    },
    {
      "inputs": [
        {
          "internalType": "uint256",
          "name": "_id",
          "type": "uint256"
        }
      ],
      "name": "deleteStock",
      "outputs": [],
      "stateMutability": "nonpayable",
      "type": "function"
    },
    {
      "inputs": [],
      "name": "nextStockId",
      "outputs": [
        {
          "internalType": "uint256",
          "name": "",
          "type": "uint256"
        }
      ],
      "stateMutability": "view",
      "type": "function"
    },
    {
      "inputs": [
        {
          "internalType": "uint256",
          "name": "",
          "type": "uint256"
        }
      ],
      "name": "peers",
      "outputs": [
        {
          "internalType": "address",
          "name": "",
          "type": "address"
        }
      ],
      "stateMutability": "view",
      "type": "function"
    },
    {
      "inputs": [
        {
          "internalType": "string",
          "name": "_name",
          "type": "string"
        },
        {
          "internalType": "uint256",
          "name": "_quantity",
          "type": "uint256"
        }
      ],
      "name": "proposeStock",
      "outputs": [
        {
          "internalType": "uint256",
          "name": "",
          "type": "uint256"
        }
      ],
      "stateMutability": "nonpayable",
      "type": "function"
    },
    {
      "inputs": [
        {
          "internalType": "uint256",
          "name": "",
          "type": "uint256"
        }
      ],
      "name": "stocks",
      "outputs": [
        {
          "internalType": "string",
          "name": "name",
          "type": "string"
        },
        {
          "internalType": "uint256",
          "name": "quantity",
          "type": "uint256"
        },
        {
          "internalType": "bool",
          "name": "exists",
          "type": "bool"
        }
      ],
      "stateMutability": "view",
      "type": "function"
    },
    {
      "inputs": [
        {
          "internalType": "uint256",
          "name": "_id",
          "type": "uint256"
        },
        {
          "internalType": "string",
          "name": "_name",
          "type": "string"
        },
        {
          "internalType": "uint256",
          "name": "_quantity",
          "type": "uint256"
        }
      ],
      "name": "updateStock",
      "outputs": [],
      "stateMutability": "nonpayable",
      "type": "function"
    }
  ],
  "bytecode": "0x60806040523480156200001157600080fd5b506040516200192b3803806200192b8339818101604052810190620000379190620002ca565b8060029060036200004a92919062000052565b5050620002fc565b8260038101928215620000c1579160200282015b82811115620000c05782518260006101000a81548173ffffffffffffffffffffffffffffffffffffffff021916908373ffffffffffffffffffffffffffffffffffffffff1602179055509160200191906001019062000066565b5b509050620000d09190620000d4565b5090565b5b80821115620000ef576000816000905550600101620000d5565b5090565b6000604051905090565b600080fd5b600080fd5b6000601f19601f8301169050919050565b7f4e487b7100000000000000000000000000000000000000000000000000000000600052604160045260246000fd5b620001528262000107565b810181811067ffffffffffffffff8211171562000174576200017362000118565b5b80604052505050565b600062000189620000f3565b905062000197828262000147565b919050565b600067ffffffffffffffff821115620001ba57620001b962000118565b5b602082029050919050565b600080fd5b600073ffffffffffffffffffffffffffffffffffffffff82169050919050565b6000620001f782620001ca565b9050919050565b6200020981620001ea565b81146200021557600080fd5b50565b6000815190506200022981620001fe565b92915050565b60006200024662000240846200019c565b6200017d565b90508060208402830185811115620002635762000262620001c5565b5b835b818110156200029057806200027b888262000218565b84526020840193505060208101905062000265565b5050509392505050565b600082601f830112620002b257620002b162000102565b5b6003620002c18482856200022f565b91505092915050565b600060608284031215620002e357620002e2620000fd565b5b6000620002f3848285016200029a565b91505092915050565b61161f806200030c6000396000f3fe608060405234801561001057600080fd5b506004361061007d5760003560e01c8063b26a3f431161005b578063b26a3f43146100ee578063bce99f581461010a578063be4f3e8f1461013a578063ff7274981461016a5761007d565b8063226b876c146100825780632a38cf11146100b45780639cfe7646146100d0575b600080fd5b61009c60048036038101906100979190610bd7565b610186565b6040516100ab93929190610cbe565b60405180910390f35b6100ce60048036038101906100c99190610bd7565b610245565b005b6100d86103f5565b6040516100e59190610cfc565b60405180910390f35b61010860048036038101906101039190610bd7565b6103fb565b005b610124600480360381019061011f9190610e4c565b610741565b6040516101319190610cfc565b60405180910390f35b610154600480360381019061014f9190610bd7565b610948565b6040516101619190610ee9565b60405180910390f35b610184600480360381019061017f9190610f04565b61097e565b005b60006020528060005260406000206000915090508060000180546101a990610fa2565b80601f01602080910402602001604051908101604052809291908181526020018280546101d590610fa2565b80156102225780601f106101f757610100808354040283529160200191610222565b820191906000526020600020905b81548152906001019060200180831161020557829003601f168201915b5050505050908060010154908060020160009054906101000a900460ff16905083565b6000805b60038110156102d6576002816003811061026657610265610fd3565b5b0160009054906101000a900473ffffffffffffffffffffffffffffffffffffffff1673ffffffffffffffffffffffffffffffffffffffff163373ffffffffffffffffffffffffffffffffffffffff16036102c357600191506102d6565b80806102ce90611031565b915050610249565b5080610317576040517f08c379a000000000000000000000000000000000000000000000000000000000815260040161030e906110c5565b60405180910390fd5b60008083815260200190815260200160002060020160009054906101000a900460ff16610379576040517f08c379a000000000000000000000000000000000000000000000000000000000815260040161037090611131565b60405180910390fd5b6000808381526020019081526020016000206000808201600061039c9190610b30565b60018201600090556002820160006101000a81549060ff021916905550507f438e5489c46dba23c2675a717f8794707d1a2c2609d7fa99a98dc60eba07fc86826040516103e99190610cfc565b60405180910390a15050565b60015481565b6000805b600381101561048c576002816003811061041c5761041b610fd3565b5b0160009054906101000a900473ffffffffffffffffffffffffffffffffffffffff1673ffffffffffffffffffffffffffffffffffffffff163373ffffffffffffffffffffffffffffffffffffffff1603610479576001915061048c565b808061048490611031565b9150506103ff565b50806104cd576040517f08c379a00000000000000000000000000000000000000000000000000000000081526004016104c4906110c5565b60405180910390fd5b60008083815260200190815260200160002060020160009054906101000a900460ff1615610530576040517f08c379a00000000000000000000000000000000000000000000000000000000081526004016105279061119d565b60405180910390fd5b6005600083815260200190815260200160002060003373ffffffffffffffffffffffffffffffffffffffff1673ffffffffffffffffffffffffffffffffffffffff16815260200190815260200160002060009054906101000a900460ff16156105ce576040517f08c379a00000000000000000000000000000000000000000000000000000000081526004016105c590611209565b60405180910390fd5b60016005600084815260200190815260200160002060003373ffffffffffffffffffffffffffffffffffffffff1673ffffffffffffffffffffffffffffffffffffffff16815260200190815260200160002060006101000a81548160ff02191690831515021790555060016006600084815260200190815260200160002060008282829054906101000a900460ff166106679190611236565b92506101000a81548160ff021916908360ff16021790555060026006600084815260200190815260200160002060009054906101000a900460ff1660ff161061073d57600160008084815260200190815260200160002060020160006101000a81548160ff0219169083151502179055507f4b394a6ba401e85be9ba24d6e09fc9719df0ff550da03a355a33a846f5079729826000808581526020019081526020016000206000016000808681526020019081526020016000206001015460405161073493929190611304565b60405180910390a15b5050565b6000806000905060005b60038110156107d8576002816003811061076857610767610fd3565b5b0160009054906101000a900473ffffffffffffffffffffffffffffffffffffffff1673ffffffffffffffffffffffffffffffffffffffff163373ffffffffffffffffffffffffffffffffffffffff16036107c557600191506107d8565b80806107d090611031565b91505061074b565b5080610819576040517f08c379a0000000000000000000000000000000000000000000000000000000008152600401610810906110c5565b60405180910390fd5b60006001600081548092919061082e90611031565b91905055905060016005600083815260200190815260200160002060003373ffffffffffffffffffffffffffffffffffffffff1673ffffffffffffffffffffffffffffffffffffffff16815260200190815260200160002060006101000a81548160ff02191690831515021790555060016006600083815260200190815260200160002060006101000a81548160ff021916908360ff160217905550604051806060016040528086815260200185815260200160001515815250600080838152602001908152602001600020600082015181600001908161090f91906114d9565b506020820151816001015560408201518160020160006101000a81548160ff021916908315150217905550905050809250505092915050565b6002816003811061095857600080fd5b016000915054906101000a900473ffffffffffffffffffffffffffffffffffffffff1681565b6000805b6003811015610a0f576002816003811061099f5761099e610fd3565b5b0160009054906101000a900473ffffffffffffffffffffffffffffffffffffffff1673ffffffffffffffffffffffffffffffffffffffff163373ffffffffffffffffffffffffffffffffffffffff16036109fc5760019150610a0f565b8080610a0790611031565b915050610982565b5080610a50576040517f08c379a0000000000000000000000000000000000000000000000000000000008152600401610a47906110c5565b60405180910390fd5b60008085815260200190815260200160002060020160009054906101000a900460ff16610ab2576040517f08c379a0000000000000000000000000000000000000000000000000000000008152600401610aa990611131565b60405180910390fd5b826000808681526020019081526020016000206000019081610ad491906114d9565b5081600080868152602001908152602001600020600101819055507f89b068defb67d0f9170d4ca88226d20775858c9ac8f4fdfdd5816aa5eb4d8892848484604051610b22939291906115ab565b60405180910390a150505050565b508054610b3c90610fa2565b6000825580601f10610b4e5750610b6d565b601f016020900490600052602060002090810190610b6c9190610b70565b5b50565b5b80821115610b89576000816000905550600101610b71565b5090565b6000604051905090565b600080fd5b600080fd5b6000819050919050565b610bb481610ba1565b8114610bbf57600080fd5b50565b600081359050610bd181610bab565b92915050565b600060208284031215610bed57610bec610b97565b5b6000610bfb84828501610bc2565b91505092915050565b600081519050919050565b600082825260208201905092915050565b60005b83811015610c3e578082015181840152602081019050610c23565b60008484015250505050565b6000601f19601f8301169050919050565b6000610c6682610c04565b610c708185610c0f565b9350610c80818560208601610c20565b610c8981610c4a565b840191505092915050565b610c9d81610ba1565b82525050565b60008115159050919050565b610cb881610ca3565b82525050565b60006060820190508181036000830152610cd88186610c5b565b9050610ce76020830185610c94565b610cf46040830184610caf565b949350505050565b6000602082019050610d116000830184610c94565b92915050565b600080fd5b600080fd5b7f4e487b7100000000000000000000000000000000000000000000000000000000600052604160045260246000fd5b610d5982610c4a565b810181811067ffffffffffffffff82111715610d7857610d77610d21565b5b80604052505050565b6000610d8b610b8d565b9050610d978282610d50565b919050565b600067ffffffffffffffff821115610db757610db6610d21565b5b610dc082610c4a565b9050602081019050919050565b82818337600083830152505050565b6000610def610dea84610d9c565b610d81565b905082815260208101848484011115610e0b57610e0a610d1c565b5b610e16848285610dcd565b509392505050565b600082601f830112610e3357610e32610d17565b5b8135610e43848260208601610ddc565b91505092915050565b60008060408385031215610e6357610e62610b97565b5b600083013567ffffffffffffffff811115610e8157610e80610b9c565b5b610e8d85828601610e1e565b9250506020610e9e85828601610bc2565b9150509250929050565b600073ffffffffffffffffffffffffffffffffffffffff82169050919050565b6000610ed382610ea8565b9050919050565b610ee381610ec8565b82525050565b6000602082019050610efe6000830184610eda565b92915050565b600080600060608486031215610f1d57610f1c610b97565b5b6000610f2b86828701610bc2565b935050602084013567ffffffffffffffff811115610f4c57610f4b610b9c565b5b610f5886828701610e1e565b9250506040610f6986828701610bc2565b9150509250925092565b7f4e487b7100000000000000000000000000000000000000000000000000000000600052602260045260246000fd5b60006002820490506001821680610fba57607f821691505b602082108103610fcd57610fcc610f73565b5b50919050565b7f4e487b7100000000000000000000000000000000000000000000000000000000600052603260045260246000fd5b7f4e487b7100000000000000000000000000000000000000000000000000000000600052601160045260246000fd5b600061103c82610ba1565b91507fffffffffffffffffffffffffffffffffffffffffffffffffffffffffffffffff820361106e5761106d611002565b5b600182019050919050565b7f4e6f7420617574686f72697a6564207065657200000000000000000000000000600082015250565b60006110af601383610c0f565b91506110ba82611079565b602082019050919050565b600060208201905081810360008301526110de816110a2565b9050919050565b7f53746f636b206e6f7420666f756e640000000000000000000000000000000000600082015250565b600061111b600f83610c0f565b9150611126826110e5565b602082019050919050565b6000602082019050818103600083015261114a8161110e565b9050919050565b7f416c726561647920637265617465640000000000000000000000000000000000600082015250565b6000611187600f83610c0f565b915061119282611151565b602082019050919050565b600060208201905081810360008301526111b68161117a565b9050919050565b7f416c726561647920617070726f76656400000000000000000000000000000000600082015250565b60006111f3601083610c0f565b91506111fe826111bd565b602082019050919050565b60006020820190508181036000830152611222816111e6565b9050919050565b600060ff82169050919050565b600061124182611229565b915061124c83611229565b9250828201905060ff81111561126557611264611002565b5b92915050565b60008190508160005260206000209050919050565b6000815461128d81610fa2565b6112978186610c0f565b945060018216600081146112b257600181146112c8576112fb565b60ff1983168652811515602002860193506112fb565b6112d18561126b565b60005b838110156112f3578154818901526001820191506020810190506112d4565b808801955050505b50505092915050565b60006060820190506113196000830186610c94565b818103602083015261132b8185611280565b905061133a6040830184610c94565b949350505050565b60006020601f8301049050919050565b600082821b905092915050565b60006008830261138f7fffffffffffffffffffffffffffffffffffffffffffffffffffffffffffffffff82611352565b6113998683611352565b95508019841693508086168417925050509392505050565b6000819050919050565b60006113d66113d16113cc84610ba1565b6113b1565b610ba1565b9050919050565b6000819050919050565b6113f0836113bb565b6114046113fc826113dd565b84845461135f565b825550505050565b600090565b61141961140c565b6114248184846113e7565b505050565b5b818110156114485761143d600082611411565b60018101905061142a565b5050565b601f82111561148d5761145e8161126b565b61146784611342565b81016020851015611476578190505b61148a61148285611342565b830182611429565b50505b505050565b600082821c905092915050565b60006114b060001984600802611492565b1980831691505092915050565b60006114c9838361149f565b9150826002028217905092915050565b6114e282610c04565b67ffffffffffffffff8111156114fb576114fa610d21565b5b6115058254610fa2565b61151082828561144c565b600060209050601f8311600181146115435760008415611531578287015190505b61153b85826114bd565b8655506115a3565b601f1984166115518661126b565b60005b8281101561157957848901518255600182019150602085019450602081019050611554565b868310156115965784890151611592601f89168261149f565b8355505b6001600288020188555050505b505050505050565b60006060820190506115c06000830186610c94565b81810360208301526115d28185610c5b565b90506115e16040830184610c94565b94935050505056fea2646970667358221220bdecc17c08a5a22269e4b39f769c6459e3c7184034f8b6678fb0990bcd1822b564736f6c63430008150033",
  "linkReferences": {},
  "deployedLinkReferences": {}
}