{
  "_format": "hh-sol-artifact-1",
  "contractName": "GenericLoggerPeerApproved",
  "sourceName": "contracts/ActionMnager.sol",
  "abi": [
    {
      "inputs": [
        {
          "internalType": "address[3]",
          "name": "_peers",
          "type": "address[3]"
        }
      ],
      "stateMutability": "nonpayable",
      "type": "constructor"
    },
    {
      "inputs": [],
      "name": "AlreadyApproved",
      "type": "error"
    },
    {
      "inputs": [],
      "name": "DuplicatePeerAddress",
      "type": "error"
    },
    {
      "inputs": [],
      "name": "EntryAlreadyExecuted",
      "type": "error"
    },
    {
      "inputs": [],
      "name": "EntryNotFound",
      "type": "error"
    },
    {
      "inputs": [],
      "name": "InvalidPeerAddress",
      "type": "error"
    },
    {
      "inputs": [],
      "name": "NotAuthorizedPeer",
      "type": "error"
    },
    {
      "anonymous": false,
      "inputs": [
        {
          "indexed": true,
          "internalType": "uint256",
          "name": "entryId",
          "type": "uint256"
        },
        {
          "indexed": true,
          "internalType": "address",
          "name": "approver",
          "type": "address"
        },
        {
          "indexed": false,
          "internalType": "uint8",
          "name": "totalApprovals",
          "type": "uint8"
        }
      ],
      "name": "EntryApproved",
      "type": "event"
    },
    {
      "anonymous": false,
      "inputs": [
        {
          "indexed": true,
          "internalType": "uint256",
          "name": "entryId",
          "type": "uint256"
        },
        {
          "indexed": true,
          "internalType": "address",
          "name": "proposer",
          "type": "address"
        },
        {
          "indexed": true,
          "internalType": "string",
          "name": "category",
          "type": "string"
        },
        {
          "indexed": false,
          "internalType": "string",
          "name": "data",
          "type": "string"
        },
        {
          "indexed": false,
          "internalType": "uint256",
          "name": "timestamp",
          "type": "uint256"
        }
      ],
      "name": "EntryLogged",
      "type": "event"
    },
    {
      "anonymous": false,
      "inputs": [
        {
          "indexed": true,
          "internalType": "uint256",
          "name": "entryId",
          "type": "uint256"
        },
        {
          "indexed": true,
          "internalType": "address",
          "name": "proposer",
          "type": "address"
        },
        {
          "indexed": true,
          "internalType": "string",
          "name": "category",
          "type": "string"
        },
        {
          "indexed": false,
          "internalType": "string",
          "name": "data",
          "type": "string"
        }
      ],
      "name": "EntryProposed",
      "type": "event"
    },
    {
      "inputs": [
        {
          "internalType": "uint256",
          "name": "",
          "type": "uint256"
        }
      ],
      "name": "approvalCount",
      "outputs": [
        {
          "internalType": "uint8",
          "name": "",
          "type": "uint8"
        }
      ],
      "stateMutability": "view",
      "type": "function"
    },
    {
      "inputs": [
        {
          "internalType": "uint256",
          "name": "",
          "type": "uint256"
        },
        {
          "internalType": "address",
          "name": "",
          "type": "address"
        }
      ],
      "name": "approvals",
      "outputs": [
        {
          "internalType": "bool",
          "name": "",
          "type": "bool"
        }
      ],
      "stateMutability": "view",
      "type": "function"
    },
    {
      "inputs": [
        {
          "internalType": "uint256",
          "name": "entryId",
          "type": "uint256"
        }
      ],
      "name": "approveEntry",
      "outputs": [],
      "stateMutability": "nonpayable",
      "type": "function"
    },
    {
      "inputs": [],
      "name": "getAllEntries",
      "outputs": [
        {
          "components": [
            {
              "internalType": "uint256",
              "name": "id",
              "type": "uint256"
            },
            {
              "internalType": "address",
              "name": "proposer",
              "type": "address"
            },
            {
              "internalType": "string",
              "name": "category",
              "type": "string"
            },
            {
              "internalType": "string",
              "name": "data",
              "type": "string"
            },
            {
              "internalType": "uint256",
              "name": "timestamp",
              "type": "uint256"
            },
            {
              "internalType": "bool",
              "name": "executed",
              "type": "bool"
            }
          ],
          "internalType": "struct GenericLoggerPeerApproved.LogEntry[]",
          "name": "",
          "type": "tuple[]"
        }
      ],
      "stateMutability": "view",
      "type": "function"
    },
    {
      "inputs": [
        {
          "internalType": "uint256",
          "name": "entryId",
          "type": "uint256"
        }
      ],
      "name": "getApprovalStatus",
      "outputs": [
        {
          "internalType": "uint8",
          "name": "currentApprovals",
          "type": "uint8"
        },
        {
          "internalType": "bool[3]",
          "name": "peerApprovals",
          "type": "bool[3]"
        }
      ],
      "stateMutability": "view",
      "type": "function"
    },
    {
      "inputs": [
        {
          "internalType": "string",
          "name": "category",
          "type": "string"
        }
      ],
      "name": "getEntriesByCategory",
      "outputs": [
        {
          "components": [
            {
              "internalType": "uint256",
              "name": "id",
              "type": "uint256"
            },
            {
              "internalType": "address",
              "name": "proposer",
              "type": "address"
            },
            {
              "internalType": "string",
              "name": "category",
              "type": "string"
            },
            {
              "internalType": "string",
              "name": "data",
              "type": "string"
            },
            {
              "internalType": "uint256",
              "name": "timestamp",
              "type": "uint256"
            },
            {
              "internalType": "bool",
              "name": "executed",
              "type": "bool"
            }
          ],
          "internalType": "struct GenericLoggerPeerApproved.LogEntry[]",
          "name": "",
          "type": "tuple[]"
        }
      ],
      "stateMutability": "view",
      "type": "function"
    },
    {
      "inputs": [
        {
          "internalType": "address",
          "name": "proposer",
          "type": "address"
        }
      ],
      "name": "getEntriesByProposer",
      "outputs": [
        {
          "components": [
            {
              "internalType": "uint256",
              "name": "id",
              "type": "uint256"
            },
            {
              "internalType": "address",
              "name": "proposer",
              "type": "address"
            },
            {
              "internalType": "string",
              "name": "category",
              "type": "string"
            },
            {
              "internalType": "string",
              "name": "data",
              "type": "string"
            },
            {
              "internalType": "uint256",
              "name": "timestamp",
              "type": "uint256"
            },
            {
              "internalType": "bool",
              "name": "executed",
              "type": "bool"
            }
          ],
          "internalType": "struct GenericLoggerPeerApproved.LogEntry[]",
          "name": "",
          "type": "tuple[]"
        }
      ],
      "stateMutability": "view",
      "type": "function"
    },
    {
      "inputs": [
        {
          "internalType": "uint256",
          "name": "startTime",
          "type": "uint256"
        },
        {
          "internalType": "uint256",
          "name": "endTime",
          "type": "uint256"
        }
      ],
      "name": "getEntriesByTimeRange",
      "outputs": [
        {
          "components": [
            {
              "internalType": "uint256",
              "name": "id",
              "type": "uint256"
            },
            {
              "internalType": "address",
              "name": "proposer",
              "type": "address"
            },
            {
              "internalType": "string",
              "name": "category",
              "type": "string"
            },
            {
              "internalType": "string",
              "name": "data",
              "type": "string"
            },
            {
              "internalType": "uint256",
              "name": "timestamp",
              "type": "uint256"
            },
            {
              "internalType": "bool",
              "name": "executed",
              "type": "bool"
            }
          ],
          "internalType": "struct GenericLoggerPeerApproved.LogEntry[]",
          "name": "",
          "type": "tuple[]"
        }
      ],
      "stateMutability": "view",
      "type": "function"
    },
    {
      "inputs": [
        {
          "internalType": "uint256",
          "name": "index",
          "type": "uint256"
        }
      ],
      "name": "getEntryByIndex",
      "outputs": [
        {
          "components": [
            {
              "internalType": "uint256",
              "name": "id",
              "type": "uint256"
            },
            {
              "internalType": "address",
              "name": "proposer",
              "type": "address"
            },
            {
              "internalType": "string",
              "name": "category",
              "type": "string"
            },
            {
              "internalType": "string",
              "name": "data",
              "type": "string"
            },
            {
              "internalType": "uint256",
              "name": "timestamp",
              "type": "uint256"
            },
            {
              "internalType": "bool",
              "name": "executed",
              "type": "bool"
            }
          ],
          "internalType": "struct GenericLoggerPeerApproved.LogEntry",
          "name": "",
          "type": "tuple"
        }
      ],
      "stateMutability": "view",
      "type": "function"
    },
    {
      "inputs": [
        {
          "internalType": "uint256",
          "name": "entryId",
          "type": "uint256"
        }
      ],
      "name": "getPendingEntry",
      "outputs": [
        {
          "components": [
            {
              "internalType": "uint256",
              "name": "id",
              "type": "uint256"
            },
            {
              "internalType": "address",
              "name": "proposer",
              "type": "address"
            },
            {
              "internalType": "string",
              "name": "category",
              "type": "string"
            },
            {
              "internalType": "string",
              "name": "data",
              "type": "string"
            },
            {
              "internalType": "uint256",
              "name": "timestamp",
              "type": "uint256"
            },
            {
              "internalType": "bool",
              "name": "executed",
              "type": "bool"
            }
          ],
          "internalType": "struct GenericLoggerPeerApproved.LogEntry",
          "name": "",
          "type": "tuple"
        }
      ],
      "stateMutability": "view",
      "type": "function"
    },
    {
      "inputs": [
        {
          "internalType": "uint256",
          "name": "count",
          "type": "uint256"
        }
      ],
      "name": "getRecentEntries",
      "outputs": [
        {
          "components": [
            {
              "internalType": "uint256",
              "name": "id",
              "type": "uint256"
            },
            {
              "internalType": "address",
              "name": "proposer",
              "type": "address"
            },
            {
              "internalType": "string",
              "name": "category",
              "type": "string"
            },
            {
              "internalType": "string",
              "name": "data",
              "type": "string"
            },
            {
              "internalType": "uint256",
              "name": "timestamp",
              "type": "uint256"
            },
            {
              "internalType": "bool",
              "name": "executed",
              "type": "bool"
            }
          ],
          "internalType": "struct GenericLoggerPeerApproved.LogEntry[]",
          "name": "",
          "type": "tuple[]"
        }
      ],
      "stateMutability": "view",
      "type": "function"
    },
    {
      "inputs": [],
      "name": "getTotalEntryCount",
      "outputs": [
        {
          "internalType": "uint256",
          "name": "",
          "type": "uint256"
        }
      ],
      "stateMutability": "view",
      "type": "function"
    },
    {
      "inputs": [
        {
          "internalType": "uint256",
          "name": "",
          "type": "uint256"
        }
      ],
      "name": "logEntries",
      "outputs": [
        {
          "internalType": "uint256",
          "name": "id",
          "type": "uint256"
        },
        {
          "internalType": "address",
          "name": "proposer",
          "type": "address"
        },
        {
          "internalType": "string",
          "name": "category",
          "type": "string"
        },
        {
          "internalType": "string",
          "name": "data",
          "type": "string"
        },
        {
          "internalType": "uint256",
          "name": "timestamp",
          "type": "uint256"
        },
        {
          "internalType": "bool",
          "name": "executed",
          "type": "bool"
        }
      ],
      "stateMutability": "view",
      "type": "function"
    },
    {
      "inputs": [
        {
          "internalType": "string",
          "name": "eventName",
          "type": "string"
        },
        {
          "internalType": "string",
          "name": "eventData",
          "type": "string"
        }
      ],
      "name": "logEvent",
      "outputs": [
        {
          "internalType": "uint256",
          "name": "",
          "type": "uint256"
        }
      ],
      "stateMutability": "nonpayable",
      "type": "function"
    },
    {
      "inputs": [
        {
          "internalType": "string",
          "name": "jsonData",
          "type": "string"
        }
      ],
      "name": "logJSON",
      "outputs": [
        {
          "internalType": "uint256",
          "name": "",
          "type": "uint256"
        }
      ],
      "stateMutability": "nonpayable",
      "type": "function"
    },
    {
      "inputs": [
        {
          "internalType": "string",
          "name": "text",
          "type": "string"
        }
      ],
      "name": "logText",
      "outputs": [
        {
          "internalType": "uint256",
          "name": "",
          "type": "uint256"
        }
      ],
      "stateMutability": "nonpayable",
      "type": "function"
    },
    {
      "inputs": [],
      "name": "nextEntryId",
      "outputs": [
        {
          "internalType": "uint256",
          "name": "",
          "type": "uint256"
        }
      ],
      "stateMutability": "view",
      "type": "function"
    },
    {
      "inputs": [
        {
          "internalType": "uint256",
          "name": "",
          "type": "uint256"
        }
      ],
      "name": "peers",
      "outputs": [
        {
          "internalType": "address",
          "name": "",
          "type": "address"
        }
      ],
      "stateMutability": "view",
      "type": "function"
    },
    {
      "inputs": [
        {
          "internalType": "uint256",
          "name": "",
          "type": "uint256"
        }
      ],
      "name": "pendingEntries",
      "outputs": [
        {
          "internalType": "uint256",
          "name": "id",
          "type": "uint256"
        },
        {
          "internalType": "address",
          "name": "proposer",
          "type": "address"
        },
        {
          "internalType": "string",
          "name": "category",
          "type": "string"
        },
        {
          "internalType": "string",
          "name": "data",
          "type": "string"
        },
        {
          "internalType": "uint256",
          "name": "timestamp",
          "type": "uint256"
        },
        {
          "internalType": "bool",
          "name": "executed",
          "type": "bool"
        }
      ],
      "stateMutability": "view",
      "type": "function"
    },
    {
      "inputs": [
        {
          "internalType": "string",
          "name": "category",
          "type": "string"
        },
        {
          "internalType": "string",
          "name": "data",
          "type": "string"
        }
      ],
      "name": "proposeEntry",
      "outputs": [
        {
          "internalType": "uint256",
          "name": "entryId",
          "type": "uint256"
        }
      ],
      "stateMutability": "nonpayable",
      "type": "function"
    }
  ],
  "bytecode": "0x608060405260016007553480156200001657600080fd5b5060405162003d4438038062003d4483398181016040528101906200003c919062000443565b60005b6003811015620001af57600073ffffffffffffffffffffffffffffffffffffffff1682826003811062000077576200007662000475565b5b602002015173ffffffffffffffffffffffffffffffffffffffff1603620000ca576040517fad90adee00000000000000000000000000000000000000000000000000000000815260040160405180910390fd5b6000600182620000db9190620004dd565b90505b60038110156200019857828160038110620000fe57620000fd62000475565b5b602002015173ffffffffffffffffffffffffffffffffffffffff168383600381106200012f576200012e62000475565b5b602002015173ffffffffffffffffffffffffffffffffffffffff160362000182576040517f741d33cf00000000000000000000000000000000000000000000000000000000815260040160405180910390fd5b80806200018f9062000518565b915050620000de565b508080620001a69062000518565b9150506200003f565b50806000906003620001c3929190620001cb565b505062000565565b82600381019282156200023a579160200282015b82811115620002395782518260006101000a81548173ffffffffffffffffffffffffffffffffffffffff021916908373ffffffffffffffffffffffffffffffffffffffff16021790555091602001919060010190620001df565b5b5090506200024991906200024d565b5090565b5b80821115620002685760008160009055506001016200024e565b5090565b6000604051905090565b600080fd5b600080fd5b6000601f19601f8301169050919050565b7f4e487b7100000000000000000000000000000000000000000000000000000000600052604160045260246000fd5b620002cb8262000280565b810181811067ffffffffffffffff82111715620002ed57620002ec62000291565b5b80604052505050565b6000620003026200026c565b9050620003108282620002c0565b919050565b600067ffffffffffffffff82111562000333576200033262000291565b5b602082029050919050565b600080fd5b600073ffffffffffffffffffffffffffffffffffffffff82169050919050565b6000620003708262000343565b9050919050565b620003828162000363565b81146200038e57600080fd5b50565b600081519050620003a28162000377565b92915050565b6000620003bf620003b98462000315565b620002f6565b90508060208402830185811115620003dc57620003db6200033e565b5b835b81811015620004095780620003f4888262000391565b845260208401935050602081019050620003de565b5050509392505050565b600082601f8301126200042b576200042a6200027b565b5b60036200043a848285620003a8565b91505092915050565b6000606082840312156200045c576200045b62000276565b5b60006200046c8482850162000413565b91505092915050565b7f4e487b7100000000000000000000000000000000000000000000000000000000600052603260045260246000fd5b6000819050919050565b7f4e487b7100000000000000000000000000000000000000000000000000000000600052601160045260246000fd5b6000620004ea82620004a4565b9150620004f783620004a4565b9250828201905080821115620005125762000511620004ae565b5b92915050565b60006200052582620004a4565b91507fffffffffffffffffffffffffffffffffffffffffffffffffffffffffffffffff82036200055a5762000559620004ae565b5b600182019050919050565b6137cf80620005756000396000f3fe608060405234801561001057600080fd5b506004361061012c5760003560e01c80638fc80ccd116100ad578063cf16fd0b11610071578063cf16fd0b146103e0578063d597f20514610411578063e6b2cf6c1461042f578063eb99ad9a1461044d578063f4a3aa6a146104825761012c565b80638fc80ccd146102f0578063ab2850da14610320578063be4f3e8f14610350578063c2b0ad4b14610380578063cd8bb8fa146103b05761012c565b80635453dd40116100f45780635453dd40146101fb57806374dd75ab1461022b578063816424be1461025b578063837e83581461028b57806388702ee9146102bb5761012c565b80631e5bc728146101315780631eaa1ca1146101615780633ce167201461017d57806340ad01ea146101ad5780634a0364e8146101dd575b600080fd5b61014b60048036038101906101469190612713565b6104b2565b60405161015891906127ad565b60405180910390f35b61017b600480360381019061017691906127f4565b610550565b005b61019760048036038101906101929190612962565b6108a7565b6040516101a491906127ad565b60405180910390f35b6101c760048036038101906101c291906127f4565b610a30565b6040516101d491906129f6565b60405180910390f35b6101e5610a50565b6040516101f29190612c4d565b60405180910390f35b610215600480360381019061021091906127f4565b610c58565b6040516102229190612cff565b60405180910390f35b61024560048036038101906102409190612d21565b610e2e565b6040516102529190612c4d565b60405180910390f35b61027560048036038101906102709190612d8d565b6111ae565b6040516102829190612c4d565b60405180910390f35b6102a560048036038101906102a09190612dba565b61155f565b6040516102b291906127ad565b60405180910390f35b6102d560048036038101906102d091906127f4565b6115ec565b6040516102e796959493929190612e6f565b60405180910390f35b61030a600480360381019061030591906127f4565b611775565b6040516103179190612cff565b60405180910390f35b61033a60048036038101906103359190612ede565b6119a1565b6040516103479190612f1e565b60405180910390f35b61036a600480360381019061036591906127f4565b6119d0565b6040516103779190612f39565b60405180910390f35b61039a600480360381019061039591906127f4565b611a06565b6040516103a79190612c4d565b60405180910390f35b6103ca60048036038101906103c59190612dba565b611cb3565b6040516103d791906127ad565b60405180910390f35b6103fa60048036038101906103f591906127f4565b611d40565b604051610408929190612ff0565b60405180910390f35b610419611e46565b60405161042691906127ad565b60405180910390f35b610437611e53565b60405161044491906127ad565b60405180910390f35b610467600480360381019061046291906127f4565b611e59565b60405161047996959493929190612e6f565b60405180910390f35b61049c60048036038101906104979190612dba565b611fd2565b6040516104a99190612c4d565b60405180910390f35b600061054685858080601f016020809104026020016040519081016040528093929190818152602001838380828437600081840152601f19601f8201169050808301925050505050505084848080601f016020809104026020016040519081016040528093929190818152602001838380828437600081840152601f19601f820116905080830192505050505050506108a7565b9050949350505050565b6000805b60038110156105e1576000816003811061057157610570613019565b5b0160009054906101000a900473ffffffffffffffffffffffffffffffffffffffff1673ffffffffffffffffffffffffffffffffffffffff163373ffffffffffffffffffffffffffffffffffffffff16036105ce57600191506105e1565b80806105d990613077565b915050610554565b5080610619576040517fe02cd4c900000000000000000000000000000000000000000000000000000000815260040160405180910390fd5b6000600460008481526020019081526020016000209050600081600001540361066e576040517fba8fc29200000000000000000000000000000000000000000000000000000000815260040160405180910390fd5b8060050160009054906101000a900460ff16156106b7576040517f0ce4435a00000000000000000000000000000000000000000000000000000000815260040160405180910390fd5b6005600084815260200190815260200160002060003373ffffffffffffffffffffffffffffffffffffffff1673ffffffffffffffffffffffffffffffffffffffff16815260200190815260200160002060009054906101000a900460ff161561074c576040517f101f817a00000000000000000000000000000000000000000000000000000000815260040160405180910390fd5b60016005600085815260200190815260200160002060003373ffffffffffffffffffffffffffffffffffffffff1673ffffffffffffffffffffffffffffffffffffffff16815260200190815260200160002060006101000a81548160ff02191690831515021790555060066000848152602001908152602001600020600081819054906101000a900460ff16809291906107e5906130bf565b91906101000a81548160ff021916908360ff160217905550503373ffffffffffffffffffffffffffffffffffffffff16837f2c0cac23d15852ab5ac648472505594757b26767a978f3ba08bcad6854d871d16006600087815260200190815260200160002060009054906101000a900460ff1660405161086591906129f6565b60405180910390a360026006600085815260200190815260200160002060009054906101000a900460ff1660ff16106108a2576108a183612386565b5b505050565b6000600760008154809291906108bc90613077565b9190505590506040518060c001604052808281526020013373ffffffffffffffffffffffffffffffffffffffff16815260200184815260200183815260200142815260200160001515815250600460008381526020019081526020016000206000820151816000015560208201518160010160006101000a81548173ffffffffffffffffffffffffffffffffffffffff021916908373ffffffffffffffffffffffffffffffffffffffff160217905550604082015181600201908161098191906132f4565b50606082015181600301908161099791906132f4565b506080820151816004015560a08201518160050160006101000a81548160ff021916908315150217905550905050826040516109d39190613402565b60405180910390203373ffffffffffffffffffffffffffffffffffffffff16827f369e93beade1caccdf494169041aceee5c22343a12f47252fd90dce3100f1a6c85604051610a229190613419565b60405180910390a492915050565b60066020528060005260406000206000915054906101000a900460ff1681565b60606003805480602002602001604051908101604052809291908181526020016000905b82821015610c4f57838290600052602060002090600602016040518060c0016040529081600082015481526020016001820160009054906101000a900473ffffffffffffffffffffffffffffffffffffffff1673ffffffffffffffffffffffffffffffffffffffff1673ffffffffffffffffffffffffffffffffffffffff168152602001600282018054610b0790613117565b80601f0160208091040260200160405190810160405280929190818152602001828054610b3390613117565b8015610b805780601f10610b5557610100808354040283529160200191610b80565b820191906000526020600020905b815481529060010190602001808311610b6357829003601f168201915b50505050508152602001600382018054610b9990613117565b80601f0160208091040260200160405190810160405280929190818152602001828054610bc590613117565b8015610c125780601f10610be757610100808354040283529160200191610c12565b820191906000526020600020905b815481529060010190602001808311610bf557829003601f168201915b50505050508152602001600482015481526020016005820160009054906101000a900460ff16151515158152505081526020019060010190610a74565b50505050905090565b610c6061262a565b600460008381526020019081526020016000206040518060c0016040529081600082015481526020016001820160009054906101000a900473ffffffffffffffffffffffffffffffffffffffff1673ffffffffffffffffffffffffffffffffffffffff1673ffffffffffffffffffffffffffffffffffffffff168152602001600282018054610cee90613117565b80601f0160208091040260200160405190810160405280929190818152602001828054610d1a90613117565b8015610d675780601f10610d3c57610100808354040283529160200191610d67565b820191906000526020600020905b815481529060010190602001808311610d4a57829003601f168201915b50505050508152602001600382018054610d8090613117565b80601f0160208091040260200160405190810160405280929190818152602001828054610dac90613117565b8015610df95780601f10610dce57610100808354040283529160200191610df9565b820191906000526020600020905b815481529060010190602001808311610ddc57829003601f168201915b50505050508152602001600482015481526020016005820160009054906101000a900460ff1615151515815250509050919050565b60606000805b600380549050811015610ec2578460038281548110610e5657610e55613019565b5b90600052602060002090600602016004015410158015610e9b57508360038281548110610e8657610e85613019565b5b90600052602060002090600602016004015411155b15610eaf578180610eab90613077565b9250505b8080610eba90613077565b915050610e34565b5060008167ffffffffffffffff811115610edf57610ede612837565b5b604051908082528060200260200182016040528015610f1857816020015b610f0561262a565b815260200190600190039081610efd5790505b5090506000805b6003805490508110156111a1578660038281548110610f4157610f40613019565b5b90600052602060002090600602016004015410158015610f8657508560038281548110610f7157610f70613019565b5b90600052602060002090600602016004015411155b1561118e5760038181548110610f9f57610f9e613019565b5b90600052602060002090600602016040518060c0016040529081600082015481526020016001820160009054906101000a900473ffffffffffffffffffffffffffffffffffffffff1673ffffffffffffffffffffffffffffffffffffffff1673ffffffffffffffffffffffffffffffffffffffff16815260200160028201805461102890613117565b80601f016020809104026020016040519081016040528092919081815260200182805461105490613117565b80156110a15780601f10611076576101008083540402835291602001916110a1565b820191906000526020600020905b81548152906001019060200180831161108457829003601f168201915b505050505081526020016003820180546110ba90613117565b80601f01602080910402602001604051908101604052809291908181526020018280546110e690613117565b80156111335780601f1061110857610100808354040283529160200191611133565b820191906000526020600020905b81548152906001019060200180831161111657829003601f168201915b50505050508152602001600482015481526020016005820160009054906101000a900460ff16151515158152505083838151811061117457611173613019565b5b6020026020010181905250818061118a90613077565b9250505b808061119990613077565b915050610f1f565b5081935050505092915050565b60606000805b60038054905081101561125b578373ffffffffffffffffffffffffffffffffffffffff16600382815481106111ec576111eb613019565b5b906000526020600020906006020160010160009054906101000a900473ffffffffffffffffffffffffffffffffffffffff1673ffffffffffffffffffffffffffffffffffffffff160361124857818061124490613077565b9250505b808061125390613077565b9150506111b4565b5060008167ffffffffffffffff81111561127857611277612837565b5b6040519080825280602002602001820160405280156112b157816020015b61129e61262a565b8152602001906001900390816112965790505b5090506000805b600380549050811015611553578573ffffffffffffffffffffffffffffffffffffffff16600382815481106112f0576112ef613019565b5b906000526020600020906006020160010160009054906101000a900473ffffffffffffffffffffffffffffffffffffffff1673ffffffffffffffffffffffffffffffffffffffff1603611540576003818154811061135157611350613019565b5b90600052602060002090600602016040518060c0016040529081600082015481526020016001820160009054906101000a900473ffffffffffffffffffffffffffffffffffffffff1673ffffffffffffffffffffffffffffffffffffffff1673ffffffffffffffffffffffffffffffffffffffff1681526020016002820180546113da90613117565b80601f016020809104026020016040519081016040528092919081815260200182805461140690613117565b80156114535780601f1061142857610100808354040283529160200191611453565b820191906000526020600020905b81548152906001019060200180831161143657829003601f168201915b5050505050815260200160038201805461146c90613117565b80601f016020809104026020016040519081016040528092919081815260200182805461149890613117565b80156114e55780601f106114ba576101008083540402835291602001916114e5565b820191906000526020600020905b8154815290600101906020018083116114c857829003601f168201915b50505050508152602001600482015481526020016005820160009054906101000a900460ff16151515158152505083838151811061152657611525613019565b5b6020026020010181905250818061153c90613077565b9250505b808061154b90613077565b9150506112b8565b50819350505050919050565b60006115e46040518060400160405280600481526020017f544558540000000000000000000000000000000000000000000000000000000081525084848080601f016020809104026020016040519081016040528093929190818152602001838380828437600081840152601f19601f820116905080830192505050505050506108a7565b905092915050565b600381815481106115fc57600080fd5b90600052602060002090600602016000915090508060000154908060010160009054906101000a900473ffffffffffffffffffffffffffffffffffffffff169080600201805461164b90613117565b80601f016020809104026020016040519081016040528092919081815260200182805461167790613117565b80156116c45780601f10611699576101008083540402835291602001916116c4565b820191906000526020600020905b8154815290600101906020018083116116a757829003601f168201915b5050505050908060030180546116d990613117565b80601f016020809104026020016040519081016040528092919081815260200182805461170590613117565b80156117525780601f1061172757610100808354040283529160200191611752565b820191906000526020600020905b81548152906001019060200180831161173557829003601f168201915b5050505050908060040154908060050160009054906101000a900460ff16905086565b61177d61262a565b60038054905082106117c4576040517f08c379a00000000000000000000000000000000000000000000000000000000081526004016117bb90613487565b60405180910390fd5b600382815481106117d8576117d7613019565b5b90600052602060002090600602016040518060c0016040529081600082015481526020016001820160009054906101000a900473ffffffffffffffffffffffffffffffffffffffff1673ffffffffffffffffffffffffffffffffffffffff1673ffffffffffffffffffffffffffffffffffffffff16815260200160028201805461186190613117565b80601f016020809104026020016040519081016040528092919081815260200182805461188d90613117565b80156118da5780601f106118af576101008083540402835291602001916118da565b820191906000526020600020905b8154815290600101906020018083116118bd57829003601f168201915b505050505081526020016003820180546118f390613117565b80601f016020809104026020016040519081016040528092919081815260200182805461191f90613117565b801561196c5780601f106119415761010080835404028352916020019161196c565b820191906000526020600020905b81548152906001019060200180831161194f57829003601f168201915b50505050508152602001600482015481526020016005820160009054906101000a900460ff1615151515815250509050919050565b60056020528160005260406000206020528060005260406000206000915091509054906101000a900460ff1681565b600081600381106119e057600080fd5b016000915054906101000a900473ffffffffffffffffffffffffffffffffffffffff1681565b6060600380549050821115611a1e5760038054905091505b60008267ffffffffffffffff811115611a3a57611a39612837565b5b604051908082528060200260200182016040528015611a7357816020015b611a6061262a565b815260200190600190039081611a585790505b509050600083600380549050611a8991906134a7565b905060005b84811015611ca85760038183611aa491906134db565b81548110611ab557611ab4613019565b5b90600052602060002090600602016040518060c0016040529081600082015481526020016001820160009054906101000a900473ffffffffffffffffffffffffffffffffffffffff1673ffffffffffffffffffffffffffffffffffffffff1673ffffffffffffffffffffffffffffffffffffffff168152602001600282018054611b3e90613117565b80601f0160208091040260200160405190810160405280929190818152602001828054611b6a90613117565b8015611bb75780601f10611b8c57610100808354040283529160200191611bb7565b820191906000526020600020905b815481529060010190602001808311611b9a57829003601f168201915b50505050508152602001600382018054611bd090613117565b80601f0160208091040260200160405190810160405280929190818152602001828054611bfc90613117565b8015611c495780601f10611c1e57610100808354040283529160200191611c49565b820191906000526020600020905b815481529060010190602001808311611c2c57829003601f168201915b50505050508152602001600482015481526020016005820160009054906101000a900460ff161515151581525050838281518110611c8a57611c89613019565b5b60200260200101819052508080611ca090613077565b915050611a8e565b508192505050919050565b6000611d386040518060400160405280600481526020017f4a534f4e0000000000000000000000000000000000000000000000000000000081525084848080601f016020809104026020016040519081016040528093929190818152602001838380828437600081840152601f19601f820116905080830192505050505050506108a7565b905092915050565b6000611d4a612678565b6006600084815260200190815260200160002060009054906101000a900460ff16915060005b6003811015611e4057600560008581526020019081526020016000206000808360038110611da157611da0613019565b5b0160009054906101000a900473ffffffffffffffffffffffffffffffffffffffff1673ffffffffffffffffffffffffffffffffffffffff1673ffffffffffffffffffffffffffffffffffffffff16815260200190815260200160002060009054906101000a900460ff16828260038110611e1e57611e1d613019565b5b6020020190151590811515815250508080611e3890613077565b915050611d70565b50915091565b6000600380549050905090565b60075481565b60046020528060005260406000206000915090508060000154908060010160009054906101000a900473ffffffffffffffffffffffffffffffffffffffff1690806002018054611ea890613117565b80601f0160208091040260200160405190810160405280929190818152602001828054611ed490613117565b8015611f215780601f10611ef657610100808354040283529160200191611f21565b820191906000526020600020905b815481529060010190602001808311611f0457829003601f168201915b505050505090806003018054611f3690613117565b80601f0160208091040260200160405190810160405280929190818152602001828054611f6290613117565b8015611faf5780601f10611f8457610100808354040283529160200191611faf565b820191906000526020600020905b815481529060010190602001808311611f9257829003601f168201915b5050505050908060040154908060050160009054906101000a900460ff16905086565b60606000805b600380549050811015612080578484604051602001611ff8929190613534565b604051602081830303815290604052805190602001206003828154811061202257612021613019565b5b906000526020600020906006020160020160405160200161204391906135d0565b604051602081830303815290604052805190602001200361206d57818061206990613077565b9250505b808061207890613077565b915050611fd8565b5060008167ffffffffffffffff81111561209d5761209c612837565b5b6040519080825280602002602001820160405280156120d657816020015b6120c361262a565b8152602001906001900390816120bb5790505b5090506000805b6003805490508110156123795786866040516020016120fd929190613534565b604051602081830303815290604052805190602001206003828154811061212757612126613019565b5b906000526020600020906006020160020160405160200161214891906135d0565b6040516020818303038152906040528051906020012003612366576003818154811061217757612176613019565b5b90600052602060002090600602016040518060c0016040529081600082015481526020016001820160009054906101000a900473ffffffffffffffffffffffffffffffffffffffff1673ffffffffffffffffffffffffffffffffffffffff1673ffffffffffffffffffffffffffffffffffffffff16815260200160028201805461220090613117565b80601f016020809104026020016040519081016040528092919081815260200182805461222c90613117565b80156122795780601f1061224e57610100808354040283529160200191612279565b820191906000526020600020905b81548152906001019060200180831161225c57829003601f168201915b5050505050815260200160038201805461229290613117565b80601f01602080910402602001604051908101604052809291908181526020018280546122be90613117565b801561230b5780601f106122e05761010080835404028352916020019161230b565b820191906000526020600020905b8154815290600101906020018083116122ee57829003601f168201915b50505050508152602001600482015481526020016005820160009054906101000a900460ff16151515158152505083838151811061234c5761234b613019565b5b6020026020010181905250818061236290613077565b9250505b808061237190613077565b9150506120dd565b5081935050505092915050565b600060046000838152602001908152602001600020905060018160050160006101000a81548160ff0219169083151502179055506003819080600181540180825580915050600190039060005260206000209060060201600090919091909150600082015481600001556001820160009054906101000a900473ffffffffffffffffffffffffffffffffffffffff168160010160006101000a81548173ffffffffffffffffffffffffffffffffffffffff021916908373ffffffffffffffffffffffffffffffffffffffff1602179055506002820181600201908161246b91906135fd565b506003820181600301908161248091906135fd565b50600482015481600401556005820160009054906101000a900460ff168160050160006101000a81548160ff0219169083151502179055505050806002016040516124cb91906135d0565b60405180910390208160010160009054906101000a900473ffffffffffffffffffffffffffffffffffffffff1673ffffffffffffffffffffffffffffffffffffffff16837f2d0e67172abcace0246ecf950d16da1d0be9b6e21a7fb701887451c57308f6d1846003018560040154604051612547929190613769565b60405180910390a46006600083815260200190815260200160002060006101000a81549060ff021916905560005b6003811015612625576005600084815260200190815260200160002060008083600381106125a6576125a5613019565b5b0160009054906101000a900473ffffffffffffffffffffffffffffffffffffffff1673ffffffffffffffffffffffffffffffffffffffff1673ffffffffffffffffffffffffffffffffffffffff16815260200190815260200160002060006101000a81549060ff0219169055808061261d90613077565b915050612575565b505050565b6040518060c0016040528060008152602001600073ffffffffffffffffffffffffffffffffffffffff1681526020016060815260200160608152602001600081526020016000151581525090565b6040518060600160405280600390602082028036833780820191505090505090565b6000604051905090565b600080fd5b600080fd5b600080fd5b600080fd5b600080fd5b60008083601f8401126126d3576126d26126ae565b5b8235905067ffffffffffffffff8111156126f0576126ef6126b3565b5b60208301915083600182028301111561270c5761270b6126b8565b5b9250929050565b6000806000806040858703121561272d5761272c6126a4565b5b600085013567ffffffffffffffff81111561274b5761274a6126a9565b5b612757878288016126bd565b9450945050602085013567ffffffffffffffff81111561277a576127796126a9565b5b612786878288016126bd565b925092505092959194509250565b6000819050919050565b6127a781612794565b82525050565b60006020820190506127c2600083018461279e565b92915050565b6127d181612794565b81146127dc57600080fd5b50565b6000813590506127ee816127c8565b92915050565b60006020828403121561280a576128096126a4565b5b6000612818848285016127df565b91505092915050565b600080fd5b6000601f19601f8301169050919050565b7f4e487b7100000000000000000000000000000000000000000000000000000000600052604160045260246000fd5b61286f82612826565b810181811067ffffffffffffffff8211171561288e5761288d612837565b5b80604052505050565b60006128a161269a565b90506128ad8282612866565b919050565b600067ffffffffffffffff8211156128cd576128cc612837565b5b6128d682612826565b9050602081019050919050565b82818337600083830152505050565b6000612905612900846128b2565b612897565b90508281526020810184848401111561292157612920612821565b5b61292c8482856128e3565b509392505050565b600082601f830112612949576129486126ae565b5b81356129598482602086016128f2565b91505092915050565b60008060408385031215612979576129786126a4565b5b600083013567ffffffffffffffff811115612997576129966126a9565b5b6129a385828601612934565b925050602083013567ffffffffffffffff8111156129c4576129c36126a9565b5b6129d085828601612934565b9150509250929050565b600060ff82169050919050565b6129f0816129da565b82525050565b6000602082019050612a0b60008301846129e7565b92915050565b600081519050919050565b600082825260208201905092915050565b6000819050602082019050919050565b612a4681612794565b82525050565b600073ffffffffffffffffffffffffffffffffffffffff82169050919050565b6000612a7782612a4c565b9050919050565b612a8781612a6c565b82525050565b600081519050919050565b600082825260208201905092915050565b60005b83811015612ac7578082015181840152602081019050612aac565b60008484015250505050565b6000612ade82612a8d565b612ae88185612a98565b9350612af8818560208601612aa9565b612b0181612826565b840191505092915050565b60008115159050919050565b612b2181612b0c565b82525050565b600060c083016000830151612b3f6000860182612a3d565b506020830151612b526020860182612a7e565b5060408301518482036040860152612b6a8282612ad3565b91505060608301518482036060860152612b848282612ad3565b9150506080830151612b996080860182612a3d565b5060a0830151612bac60a0860182612b18565b508091505092915050565b6000612bc38383612b27565b905092915050565b6000602082019050919050565b6000612be382612a11565b612bed8185612a1c565b935083602082028501612bff85612a2d565b8060005b85811015612c3b5784840389528151612c1c8582612bb7565b9450612c2783612bcb565b925060208a01995050600181019050612c03565b50829750879550505050505092915050565b60006020820190508181036000830152612c678184612bd8565b905092915050565b600060c083016000830151612c876000860182612a3d565b506020830151612c9a6020860182612a7e565b5060408301518482036040860152612cb28282612ad3565b91505060608301518482036060860152612ccc8282612ad3565b9150506080830151612ce16080860182612a3d565b5060a0830151612cf460a0860182612b18565b508091505092915050565b60006020820190508181036000830152612d198184612c6f565b905092915050565b60008060408385031215612d3857612d376126a4565b5b6000612d46858286016127df565b9250506020612d57858286016127df565b9150509250929050565b612d6a81612a6c565b8114612d7557600080fd5b50565b600081359050612d8781612d61565b92915050565b600060208284031215612da357612da26126a4565b5b6000612db184828501612d78565b91505092915050565b60008060208385031215612dd157612dd06126a4565b5b600083013567ffffffffffffffff811115612def57612dee6126a9565b5b612dfb858286016126bd565b92509250509250929050565b612e1081612a6c565b82525050565b600082825260208201905092915050565b6000612e3282612a8d565b612e3c8185612e16565b9350612e4c818560208601612aa9565b612e5581612826565b840191505092915050565b612e6981612b0c565b82525050565b600060c082019050612e84600083018961279e565b612e916020830188612e07565b8181036040830152612ea38187612e27565b90508181036060830152612eb78186612e27565b9050612ec6608083018561279e565b612ed360a0830184612e60565b979650505050505050565b60008060408385031215612ef557612ef46126a4565b5b6000612f03858286016127df565b9250506020612f1485828601612d78565b9150509250929050565b6000602082019050612f336000830184612e60565b92915050565b6000602082019050612f4e6000830184612e07565b92915050565b600060039050919050565b600081905092915050565b6000819050919050565b6000612f808383612b18565b60208301905092915050565b6000602082019050919050565b612fa281612f54565b612fac8184612f5f565b9250612fb782612f6a565b8060005b83811015612fe8578151612fcf8782612f74565b9650612fda83612f8c565b925050600181019050612fbb565b505050505050565b600060808201905061300560008301856129e7565b6130126020830184612f99565b9392505050565b7f4e487b7100000000000000000000000000000000000000000000000000000000600052603260045260246000fd5b7f4e487b7100000000000000000000000000000000000000000000000000000000600052601160045260246000fd5b600061308282612794565b91507fffffffffffffffffffffffffffffffffffffffffffffffffffffffffffffffff82036130b4576130b3613048565b5b600182019050919050565b60006130ca826129da565b915060ff82036130dd576130dc613048565b5b600182019050919050565b7f4e487b7100000000000000000000000000000000000000000000000000000000600052602260045260246000fd5b6000600282049050600182168061312f57607f821691505b602082108103613142576131416130e8565b5b50919050565b60008190508160005260206000209050919050565b60006020601f8301049050919050565b600082821b905092915050565b6000600883026131aa7fffffffffffffffffffffffffffffffffffffffffffffffffffffffffffffffff8261316d565b6131b4868361316d565b95508019841693508086168417925050509392505050565b6000819050919050565b60006131f16131ec6131e784612794565b6131cc565b612794565b9050919050565b6000819050919050565b61320b836131d6565b61321f613217826131f8565b84845461317a565b825550505050565b600090565b613234613227565b61323f818484613202565b505050565b5b818110156132635761325860008261322c565b600181019050613245565b5050565b601f8211156132a85761327981613148565b6132828461315d565b81016020851015613291578190505b6132a561329d8561315d565b830182613244565b50505b505050565b600082821c905092915050565b60006132cb600019846008026132ad565b1980831691505092915050565b60006132e483836132ba565b9150826002028217905092915050565b6132fd82612a8d565b67ffffffffffffffff81111561331657613315612837565b5b6133208254613117565b61332b828285613267565b600060209050601f83116001811461335e576000841561334c578287015190505b61335685826132d8565b8655506133be565b601f19841661336c86613148565b60005b828110156133945784890151825560018201915060208501945060208101905061336f565b868310156133b157848901516133ad601f8916826132ba565b8355505b6001600288020188555050505b505050505050565b600081905092915050565b60006133dc82612a8d565b6133e681856133c6565b93506133f6818560208601612aa9565b80840191505092915050565b600061340e82846133d1565b915081905092915050565b600060208201905081810360008301526134338184612e27565b905092915050565b7f496e646578206f7574206f6620626f756e647300000000000000000000000000600082015250565b6000613471601383612e16565b915061347c8261343b565b602082019050919050565b600060208201905081810360008301526134a081613464565b9050919050565b60006134b282612794565b91506134bd83612794565b92508282039050818111156134d5576134d4613048565b5b92915050565b60006134e682612794565b91506134f183612794565b925082820190508082111561350957613508613048565b5b92915050565b600061351b83856133c6565b93506135288385846128e3565b82840190509392505050565b600061354182848661350f565b91508190509392505050565b6000815461355a81613117565b61356481866133c6565b9450600182166000811461357f5760018114613594576135c7565b60ff19831686528115158202860193506135c7565b61359d85613148565b60005b838110156135bf578154818901526001820191506020810190506135a0565b838801955050505b50505092915050565b60006135dc828461354d565b915081905092915050565b6000815490506135f681613117565b9050919050565b81810361360b5750506136e3565b613614826135e7565b67ffffffffffffffff81111561362d5761362c612837565b5b6136378254613117565b613642828285613267565b6000601f831160018114613671576000841561365f578287015490505b61366985826132d8565b8655506136dc565b601f19841661367f87613148565b965061368a86613148565b60005b828110156136b25784890154825560018201915060018501945060208101905061368d565b868310156136cf57848901546136cb601f8916826132ba565b8355505b6001600288020188555050505b5050505050505b565b600081546136f281613117565b6136fc8186612e16565b94506001821660008114613717576001811461372d57613760565b60ff198316865281151560200286019350613760565b61373685613148565b60005b8381101561375857815481890152600182019150602081019050613739565b808801955050505b50505092915050565b6000604082019050818103600083015261378381856136e5565b9050613792602083018461279e565b939250505056fea26469706673582212201c88ea74344ae0d99ce21bf790a58619fc1b1f38ba5e973267e1395cd8780ef364736f6c63430008150033",
  "linkReferences": {},
  "deployedLinkReferences": {}
}