{
  "contractName": "CBUStores",
  "abi": [
    {
      "anonymous": false,
      "inputs": [
        {
          "indexed": true,
          "internalType": "uint256",
          "name": "requestId",
          "type": "uint256"
        },
        {
          "indexed": true,
          "internalType": "address",
          "name": "approver",
          "type": "address"
        },
        {
          "indexed": false,
          "internalType": "bool",
          "name": "approved",
          "type": "bool"
        },
        {
          "indexed": false,
          "internalType": "string",
          "name": "reason",
          "type": "string"
        }
      ],
      "name": "RequestApproved",
      "type": "event"
    },
    {
      "anonymous": false,
      "inputs": [
        {
          "indexed": true,
          "internalType": "uint256",
          "name": "requestId",
          "type": "uint256"
        },
        {
          "indexed": true,
          "internalType": "address",
          "name": "requester",
          "type": "address"
        },
        {
          "indexed": false,
          "internalType": "string",
          "name": "itemName",
          "type": "string"
        },
        {
          "indexed": false,
          "internalType": "uint256",
          "name": "quantity",
          "type": "uint256"
        }
      ],
      "name": "RequestCreated",
      "type": "event"
    },
    {
      "anonymous": false,
      "inputs": [
        {
          "indexed": true,
          "internalType": "address",
          "name": "user",
          "type": "address"
        },
        {
          "indexed": false,
          "internalType": "string",
          "name": "role",
          "type": "string"
        },
        {
          "indexed": false,
          "internalType": "bool",
          "name": "status",
          "type": "bool"
        }
      ],
      "name": "RoleAssigned",
      "type": "event"
    },
    {
      "inputs": [],
      "name": "requestCount",
      "outputs": [
        {
          "internalType": "uint256",
          "name": "",
          "type": "uint256"
        }
      ],
      "stateMutability": "view",
      "type": "function",
      "constant": true
    },
    {
      "inputs": [
        {
          "internalType": "uint256",
          "name": "",
          "type": "uint256"
        }
      ],
      "name": "requests",
      "outputs": [
        {
          "internalType": "uint256",
          "name": "id",
          "type": "uint256"
        },
        {
          "internalType": "address",
          "name": "requester",
          "type": "address"
        },
        {
          "internalType": "string",
          "name": "itemName",
          "type": "string"
        },
        {
          "internalType": "uint256",
          "name": "quantity",
          "type": "uint256"
        },
        {
          "internalType": "string",
          "name": "priority",
          "type": "string"
        },
        {
          "internalType": "string",
          "name": "reason",
          "type": "string"
        },
        {
          "internalType": "bool",
          "name": "approved",
          "type": "bool"
        },
        {
          "internalType": "bool",
          "name": "fulfilled",
          "type": "bool"
        }
      ],
      "stateMutability": "view",
      "type": "function",
      "constant": true
    },
    {
      "inputs": [
        {
          "internalType": "address",
          "name": "",
          "type": "address"
        },
        {
          "internalType": "string",
          "name": "",
          "type": "string"
        }
      ],
      "name": "roles",
      "outputs": [
        {
          "internalType": "bool",
          "name": "",
          "type": "bool"
        }
      ],
      "stateMutability": "view",
      "type": "function",
      "constant": true
    },
    {
      "inputs": [],
      "name": "getContractInfo",
      "outputs": [
        {
          "internalType": "string",
          "name": "",
          "type": "string"
        }
      ],
      "stateMutability": "pure",
      "type": "function",
      "constant": true
    },
    {
      "inputs": [
        {
          "internalType": "address",
          "name": "user",
          "type": "address"
        },
        {
          "internalType": "string",
          "name": "role",
          "type": "string"
        },
        {
          "internalType": "bool",
          "name": "status",
          "type": "bool"
        }
      ],
      "name": "assignRole",
      "outputs": [],
      "stateMutability": "nonpayable",
      "type": "function"
    },
    {
      "inputs": [
        {
          "internalType": "string",
          "name": "itemName",
          "type": "string"
        },
        {
          "internalType": "uint256",
          "name": "quantity",
          "type": "uint256"
        },
        {
          "internalType": "string",
          "name": "priority",
          "type": "string"
        },
        {
          "internalType": "string",
          "name": "reason",
          "type": "string"
        }
      ],
      "name": "createRequest",
      "outputs": [
        {
          "internalType": "uint256",
          "name": "",
          "type": "uint256"
        }
      ],
      "stateMutability": "nonpayable",
      "type": "function"
    },
    {
      "inputs": [
        {
          "internalType": "uint256",
          "name": "requestId",
          "type": "uint256"
        },
        {
          "internalType": "bool",
          "name": "approved",
          "type": "bool"
        },
        {
          "internalType": "string",
          "name": "reason",
          "type": "string"
        }
      ],
      "name": "approveRequest",
      "outputs": [],
      "stateMutability": "nonpayable",
      "type": "function"
    },
    {
      "inputs": [
        {
          "internalType": "address",
          "name": "user",
          "type": "address"
        },
        {
          "internalType": "string",
          "name": "role",
          "type": "string"
        }
      ],
      "name": "hasRole",
      "outputs": [
        {
          "internalType": "bool",
          "name": "",
          "type": "bool"
        }
      ],
      "stateMutability": "view",
      "type": "function",
      "constant": true
    }
  ],
  "bytecode": "0x608060405234801561001057600080fd5b50610c06806100206000396000f3fe608060405234801561001057600080fd5b50600436106100885760003560e01c80635badbe4c1161005b5780635badbe4c146101195780637380b4ce146101305780637cc1f8671461014357806381d12c581461018257600080fd5b806317fb6c6e1461008d578063217fe6c6146100a25780633f71f488146100ca5780634a4a15d4146100dd575b600080fd5b6100a061009b366004610736565b6101a9565b005b6100b56100b03660046107a4565b610263565b60405190151581526020015b60405180910390f35b6100a06100d83660046107f2565b6102a4565b6100b56100eb3660046107a4565b6000602081815292815260409020815180830184018051928152908401929093019190912091525460ff1681565b61012260025481565b6040519081526020016100c1565b61012261013e366004610850565b61033f565b60408051808201825260208082527f4342552043656e7472616c2053746f72657320436f6e74726163742076312e309082015290516100c19190610932565b61019561019036600461094c565b610494565b6040516100c1989796959493929190610965565b60008381526001602052604081205490036102035760405162461bcd60e51b815260206004820152601660248201527514995c5d595cdd08191bd95cc81b9bdd08195e1a5cdd60521b604482015260640160405180910390fd5b60008381526001602052604090819020600601805460ff191684151517905551339084907f9abb7a8ba7a1870077825d62545e1cf1415b464c777e9299c5a7fc4d863acec49061025690869086906109db565b60405180910390a3505050565b6001600160a01b03821660009081526020819052604080822090516102899084906109fe565b9081526040519081900360200190205460ff16905092915050565b80600080856001600160a01b03166001600160a01b03168152602001908152602001600020836040516102d791906109fe565b908152604051908190036020018120805492151560ff19909316929092179091556001600160a01b038416907f8008fe865692edb2aa4f1a32b824cd6d07a10959d9cab89de256deb89e18ae3c906103329085908590610a1a565b60405180910390a2505050565b600280546000918261035083610a3e565b90915550506040805161010081018252600280548083523360208085019182528486018b8152606086018b9052608086018a905260a08601899052600060c0870181905260e087018190529384526001918290529590922084518155905191810180546001600160a01b0319166001600160a01b03909316929092179091559251919291908201906103e29082610aee565b5060608201516003820155608082015160048201906104019082610aee565b5060a082015160058201906104169082610aee565b5060c08201516006909101805460e09093015115156101000261ff00199215159290921661ffff19909316929092171790556002546040513391907f5a0fbb51489332ea302756bf6f2f7aeb1907708caf26da6086fd68a676757c23906104809089908990610bae565b60405180910390a350600254949350505050565b60016020819052600091825260409091208054918101546002820180546001600160a01b0390921692916104c790610a65565b80601f01602080910402602001604051908101604052809291908181526020018280546104f390610a65565b80156105405780601f1061051557610100808354040283529160200191610540565b820191906000526020600020905b81548152906001019060200180831161052357829003601f168201915b50505050509080600301549080600401805461055b90610a65565b80601f016020809104026020016040519081016040528092919081815260200182805461058790610a65565b80156105d45780601f106105a9576101008083540402835291602001916105d4565b820191906000526020600020905b8154815290600101906020018083116105b757829003601f168201915b5050505050908060050180546105e990610a65565b80601f016020809104026020016040519081016040528092919081815260200182805461061590610a65565b80156106625780601f1061063757610100808354040283529160200191610662565b820191906000526020600020905b81548152906001019060200180831161064557829003601f168201915b5050506006909301549192505060ff8082169161010090041688565b8035801515811461068e57600080fd5b919050565b634e487b7160e01b600052604160045260246000fd5b600082601f8301126106ba57600080fd5b813567ffffffffffffffff808211156106d5576106d5610693565b604051601f8301601f19908116603f011681019082821181831017156106fd576106fd610693565b8160405283815286602085880101111561071657600080fd5b836020870160208301376000602085830101528094505050505092915050565b60008060006060848603121561074b57600080fd5b8335925061075b6020850161067e565b9150604084013567ffffffffffffffff81111561077757600080fd5b610783868287016106a9565b9150509250925092565b80356001600160a01b038116811461068e57600080fd5b600080604083850312156107b757600080fd5b6107c08361078d565b9150602083013567ffffffffffffffff8111156107dc57600080fd5b6107e8858286016106a9565b9150509250929050565b60008060006060848603121561080757600080fd5b6108108461078d565b9250602084013567ffffffffffffffff81111561082c57600080fd5b610838868287016106a9565b9250506108476040850161067e565b90509250925092565b6000806000806080858703121561086657600080fd5b843567ffffffffffffffff8082111561087e57600080fd5b61088a888389016106a9565b95506020870135945060408701359150808211156108a757600080fd5b6108b3888389016106a9565b935060608701359150808211156108c957600080fd5b506108d6878288016106a9565b91505092959194509250565b60005b838110156108fd5781810151838201526020016108e5565b50506000910152565b6000815180845261091e8160208601602086016108e2565b601f01601f19169290920160200192915050565b6020815260006109456020830184610906565b9392505050565b60006020828403121561095e57600080fd5b5035919050565b8881526001600160a01b0388166020820152610100604082018190526000906109908382018a610906565b905087606084015282810360808401526109aa8188610906565b905082810360a08401526109be8187610906565b94151560c0840152505090151560e0909101529695505050505050565b82151581526040602082015260006109f66040830184610906565b949350505050565b60008251610a108184602087016108e2565b9190910192915050565b604081526000610a2d6040830185610906565b905082151560208301529392505050565b600060018201610a5e57634e487b7160e01b600052601160045260246000fd5b5060010190565b600181811c90821680610a7957607f821691505b602082108103610a9957634e487b7160e01b600052602260045260246000fd5b50919050565b601f821115610ae957600081815260208120601f850160051c81016020861015610ac65750805b601f850160051c820191505b81811015610ae557828155600101610ad2565b5050505b505050565b815167ffffffffffffffff811115610b0857610b08610693565b610b1c81610b168454610a65565b84610a9f565b602080601f831160018114610b515760008415610b395750858301515b600019600386901b1c1916600185901b178555610ae5565b600085815260208120601f198616915b82811015610b8057888601518255948401946001909101908401610b61565b5085821015610b9e5787850151600019600388901b60f8161c191681555b5050505050600190811b01905550565b604081526000610bc16040830185610906565b9050826020830152939250505056fea2646970667358221220e55bb04915bf49ec5cf16a0a9eedd650568488e163d1fe3af13928428eb7a43664736f6c63430008130033",
  "immutableReferences": {},
  "source": "// SPDX-License-Identifier: MIT\r\npragma solidity ^0.8.0;\r\n\r\ncontract CBUStores {\r\n    struct Request {\r\n        uint256 id;\r\n        address requester;\r\n        string itemName;\r\n        uint256 quantity;\r\n        string priority;\r\n        string reason;\r\n        bool approved;\r\n        bool fulfilled;\r\n    }\r\n    \r\n    mapping(address => mapping(string => bool)) public roles;\r\n    mapping(uint256 => Request) public requests;\r\n    uint256 public requestCount;\r\n    \r\n    event RoleAssigned(address indexed user, string role, bool status);\r\n    event RequestCreated(uint256 indexed requestId, address indexed requester, string itemName, uint256 quantity);\r\n    event RequestApproved(uint256 indexed requestId, address indexed approver, bool approved, string reason);\r\n    \r\n    function getContractInfo() public pure returns (string memory) {\r\n        return \"CBU Central Stores Contract v1.0\";\r\n    }\r\n    \r\n    function assignRole(address user, string memory role, bool status) public {\r\n        roles[user][role] = status;\r\n        emit RoleAssigned(user, role, status);\r\n    }\r\n    \r\n    function createRequest(\r\n        string memory itemName,\r\n        uint256 quantity,\r\n        string memory priority,\r\n        string memory reason\r\n    ) public returns (uint256) {\r\n        requestCount++;\r\n        requests[requestCount] = Request({\r\n            id: requestCount,\r\n            requester: msg.sender,\r\n            itemName: itemName,\r\n            quantity: quantity,\r\n            priority: priority,\r\n            reason: reason,\r\n            approved: false,\r\n            fulfilled: false\r\n        });\r\n        \r\n        emit RequestCreated(requestCount, msg.sender, itemName, quantity);\r\n        return requestCount;\r\n    }\r\n    \r\n    function approveRequest(uint256 requestId, bool approved, string memory reason) public {\r\n        require(requests[requestId].id != 0, \"Request does not exist\");\r\n        requests[requestId].approved = approved;\r\n        emit RequestApproved(requestId, msg.sender, approved, reason);\r\n    }\r\n    \r\n    function hasRole(address user, string memory role) public view returns (bool) {\r\n        return roles[user][role];\r\n    }\r\n}",
  "sourcePath": "C:\\Users\\Blessings Chongo\\express-server\\ExpressServer\\contracts\\CBUStores.sol",
  "compiler": {
    "name": "solc",
    "version": "0.8.19+commit.7dd6d404.Emscripten.clang"
  },
  "schemaVersion": "3.4.16",
  "updatedAt": "2025-09-23T23:13:19.142Z",
  "networkType": "ethereum",
  "devdoc": {
    "kind": "dev",
    "methods": {},
    "version": 1
  },
  "userdoc": {
    "kind": "user",
    "methods": {},
    "version": 1
  }
}